:100000000C9476060C949E060C949E060C949E0608
:100010000C949E060C949E060C949E060C94BB0DAC
:100020000C949E060C949E060C949E060C94610EF5
:100030000C949E060C949E060C949E060C949E06B0
:100040000C94170E0C949E060C949E060C949E061F
:100050000C949E060C949E060C949E060C949E0690
:100060000C949E060C949E06AED580A83FD300400B
:100070008D142002A1C8DA12817FD9F1DB40A4A639
:10008000AF00030C0F30333C3FC0C3CCCFF0F3FCC8
:10009000FF00000000240027002A000000000023C9
:1000A00000260029000000000800020100000304EF
:1000B00007000000000000000000000A0F205F00A1
:1000C0000000000000000000000000000000000030
:1000D00000000000000000FEFE0000000000000024
:1000E0000019190000000000001E1E00001E1E0066
:1000F00000000000000000000000000030FEFE30A4
:1001000030FEFE300000031F1F03031F1F0300000B
:1001100070F8D8FE9898000000000C18187F191F7E
:100120000F00001CB6A2F6CC606020300001010078
:100130000E1B111B0E00000000DC7EE6C6860C8044
:100140008000070F1C18191F1E1F13000000001E3F
:100150001E00000000000000000000000000000081
:100160000000E0FC1E02000000000000073F784095
:100170000000000000021EFCE00000000000004043
:10018000783F070000000000487830FE30784800D3
:10019000000000000001000000000000808080F0EE
:1001A000F080808000000101010F0F0101010000BB
:1001B000000000000000000000000000407C3C0047
:1001C000000000000000000000000000000000032C
:1001D0000303030300000000000000000000000013
:1001E00000000000001C1C0000000000000000C017
:1001F000F03C0E02000020381E0701000000000045
:10020000F0FC0EC6C60EFCF80000030F1C18181CEC
:100210000F070000000C06FEFE000000000018188A
:10022000181F1F18181800000C06060686C67C3812
:100230000000181C1E1B1918181800000C06C6C652
:10024000C6C6FC3800000C18181818190F0F00004B
:1002500080C070180EFEFE00000003030303031F9E
:100260001F030000FE7E666666E6C68000000C186E
:100270001818181C0F070000F0FCCE6666E6CC804C
:100280000000070F1C18181C0F07000006060606C2
:10029000E6FE3E0E000000101C0F030000000000F0
:1002A00038FCC6C6C6C6FC3800000F0F1818181850
:1002B0000F0F000078FCCE8686CEFCF80000000C04
:1002C0001919191C0F030000000000E0E0000000F5
:1002D00000000000001C1C0000000000000000E006
:1002E000E000000000000000407C3C000000000036
:1002F0008080C040606020300000010103020606DB
:10030000040C0000606060606060606000000606D1
:1003100006060606060600003020606040C08080A9
:1003200000000C0406060203010100000C0686C64C
:10033000667E1C00000000001B1B0000000000E0A7
:10034000F0389CCCCCDCF8F000071F387367666689
:100350007727000000C0FC3E3EFCC0000000181FD4
:100360000F03030F1F180000FEFEC6C6C6C6FC3CE6
:1003700000001F1F181818181F0F0000F0FC0C06B3
:100380000606060C0000030F0C181818180C0000C5
:10039000FEFE0606060CFCF000001F1F1818180CC5
:1003A0000F030000FEFEC6C6C6C6C60600001F1F1D
:1003B0001818181818180000FEFEC6C6C6C6C606CD
:1003C00000001F1F0000000000000000F0FC0C06F1
:1003D0008686868C0000030F0C1819191F0F000069
:1003E000FEFEC0C0C0C0FEFE00001F1F00000000D7
:1003F0001F1F0000000606FEFE0606000000001893
:10040000181F1F1818000000000000060606FEFE58
:1004100000000C18181818180F0F0000FEFEE0F06E
:10042000FC0E060200001F1F0000030F1E18000034
:10043000FEFE00000000000000001F1F1818181822
:1004400018180000FEFE3EF0F03EFEFE00001F1FEA
:10045000000101001F1F0000FEFE1EF0C000FEFE96
:1004600000001F1F0000031E1F1F0000F0FC0E06EF
:10047000060EFCF00000030F1C18181C0F030000F0
:10048000FEFEC6C6C6C67C7C00001F1F0000000022
:1004900000000000F0FC0E06060EFCF00000030F4A
:1004A0001C18183C6F070000FEFEC6C6C6C6FC3C02
:1004B00000001F1F000001031F1E1000387CE6C64D
:1004C000C6C68C0000000C18181818190F0F000071
:1004D000060606FEFE06060600000000001F1F00BE
:1004E00000000000FEFE00000000FEFE0000070FFE
:1004F0001C18181C0F07000006FEFC0000FCFE067E
:10050000000000001F1F1F1F0000001EFEE000F083
:10051000F000E0FE1E001F1F1E01011E1F1F000035
:10052000020E3EF8F83E0E020000101C1F03031FCF
:100530001C1000020E3E78E0E0783E0E0200000043
:10054000001F1F0000000000060686C6F67E1E0E75
:1005500000001C1E1F1B1818181800000000FEFECB
:1005600002020000000000007F7F40400000000009
:10057000020E38E080000000000000000000030EC2
:1005800038200000000202FEFE00000000000040D3
:10059000407F7F0000000010181C0E060E1C181073
:1005A000000000000000000000000000000000004B
:1005B00000000000004040404040404040404000BB
:1005C000000103060400000000000000000000001D
:1005D00000000000006030B0B0B0F0E000000E1F7E
:1005E0001B19190D1F1F0000FEFE60303070E0C0A7
:1005F00000001F1F0C18181C0F070000C0E070300F
:10060000303030600000070F1C181818180C00005C
:10061000C0E070303060FEFE0000070F1C18180CA0
:100620001F1F0000C0E0B0B0B0B0E0C00000070F76
:100630001D191919190D00003030FCFE3636360030
:10064000000000001F1F000000000000C0E070302C
:100650003060F0F0000003376E6C6C667F3F000086
:10066000FEFE60303030F0E000001F1F0000000090
:100670001F1F0000003030F7F700000000001818BE
:10068000181F1F1818180000003030F7F70000007E
:1006900000006060607F3F0000000000FEFE80E020
:1006A0007030100000001F1F0103071E181000000B
:1006B0000606FEFE00000000000000000F1F1818D4
:1006C00018000000F0F030F0E030F0E000001F1FF4
:1006D000001F1F001F1F0000F0F060303030F0E0FE
:1006E00000001F1F000000001F1F0000C0E070304E
:1006F0003070E0C00000070F1C18181C0F07000026
:10070000F0F060303070E0C000007F7F060C0C0E0F
:1007100007030000C0E070303060F0F00000030715
:100720000E0C0C067F7F000000F0F060303030309F
:100730000000001F1F00000000000000E0F0B0B04B
:10074000B0B0306000000C191919191B1F0E000001
:100750003030FCFC30303000000000000F1F181853
:1007600018000000F0F000000000F0F000000F1F83
:100770001818180C1F1F000030F0E00000E0F030E7
:10078000000000010F1E1E0F01000070F00000C0ED
:10079000C00000F07000071F1E03031E1F070000AB
:1007A0001030F0C0C0F03010000010181E07071EF7
:1007B0001810000010F0F08000F0F0300000006031
:1007C000637F1F0F0100000030303030B0F0703018
:1007D0000000181C1E1B191818180000000000FC4F
:1007E000FE02020000000001013E7E4040000000C9
:1007F000000000FEFE00000000000000007F7F00FF
:1008000000000000000202FEFC00000000000040AA
:10081000407E3E010100000080C0C0C0808080C0DA
:1008200000000100000001010100000000060E2090
:10083000600000000000000000000000000000FC5C
:10084000FC000000000D0D0000001E1E001E1E001A
:10085000000000000020FCFCFCFC20010F0F0F0F2B
:10086000013048FCFC883006081F1F0807183CA40C
:10087000781C0C0C0E07090F0600B8FC44FCB807E6
:100880000F08070F0900001E1E00000000000000F6
:100890000000E0F81C060200030F1C3020000206D6
:1008A0001CF8E00020301C0F038C50FCFC508C0125
:1008B00000010100018080F0F08080000007070047
:1008C000000000000000000000243C1C008080802C
:1008D0008080800000000000000000000000000098
:1008E000000C0C00000000C0F03E0E383E07010076
:1008F00000F8FC0404FCF8070F08080F071018FCA8
:10090000FC000008080F0F0808181C04C4FC380C71
:100910000E0B090808181C4444FCB8060E08080F02
:100920000780C060F8FC000303020F0F027C7C24E8
:1009300024E4C4060E08080F07F0F84C44DC9807BE
:100940000F08080F071C1CC4F43C0C00000F0F001C
:100950000038FCC4C4FC38070F08080F0778FC8473
:1009600084FCF8060E080C0703000030300000007D
:1009700000060600000000003030000000121E0ECD
:100980000080C060301808000103060C0840404099
:1009900040404002020202020208183060C0800893
:1009A0000C06030100181CC4E43C1800000D0D00E7
:1009B00000F0F8ECF41CF803070D0B0A0BF8FC0C24
:1009C0000CFCF80F0F01010F0FFCFC4444FC980FC6
:1009D0000F08080F07F8FC04041C18070F08080E7E
:1009E00006FCFC040CF8F00F0F080C0703FCFC4499
:1009F0004444040F0F08080808FCFC444444040F56
:100A00000F00000000F8FC04849C98070F08080FF2
:100A100007FCFC4040FCFC0F0F00000F0F0404FC1F
:100A2000FC040408080F0F080800000000FCFC0686
:100A30000E080C0703FCFCF0980C040F0F01030ECA
:100A40000CFCFC000000000F0F08080808FCF86010
:100A500060F8FC0F0F00000F0FFCFC7080FCFC0F17
:100A60000F00030F0FF8FC0404FCF8070F08080F31
:100A700007FCFC8484FC780F0F00000000F8FC04E5
:100A800004FCF8070F090A1F37FCFC44C4FC380FAC
:100A90000F00000F0F183CE4C41C18060E08090FC5
:100AA000060404FCFC040400000F0F0000FCFC0022
:100AB00000FCFC070F08080F07FCFC0000FCFC0111
:100AC000070E0E0701FCFC8080FCFC070F07070FD8
:100AD000070C3CF0F03C0C0C0F03030F0C1C7CE0EB
:100AE000E07C1C00000F0F00000404C4F43C0C0C5C
:100AF0000F0B08080800FEFE020202003F3F202004
:100B0000200E3EF0C00000000001073E3800020247
:100B100002FEFE002020203F3F04060303060400DF
:100B200000000000000000000000003030303030D5
:100B3000300002060C0800000000000000406020A9
:100B4000A0E0C0060F09080F0FFCFC2020E0C00F3A
:100B50000F08080F07C0E020206040070F08080CAE
:100B600004C0E02020FCFC070F08080F0FC0E020A5
:100B700020E0C0070F09090D054040F8FC4C480073
:100B8000000F0F0000C0E020E0C060193F2A2B39A1
:100B900010FCFC2020E0C00F0F00000F0F0000EC45
:100BA000EC000000000F0F000000000000ECEC0063
:100BB0001030203F1FFCFC80C060000F0F010306B7
:100BC0000C0000FCFC000000000F0F0000E0E0C083
:100BD000E0E0C00F0F07070F0FE0E02020E0C00F9C
:100BE0000F00000F0FC0E02020E0C0070F08080F23
:100BF00007E0E02020E0C03F3F08080F07C0E020EA
:100C000020E0E0070F08083F3FE0E02020E0C00FB1
:100C10000F0000000040E0A0206040040C090B0E13
:100C2000042020FCFC20200000070F0808E0E00062
:100C300000E0E0070F08080F0FE0E00000E0E00030
:100C4000030F0F0300E0E08080E0E0070F07070FCD
:100C50000760E08080E0600C0E03030E0C60E08013
:100C600000E0E01031273E1F01202020A0E0600CB2
:100C70000E0B0908080080FC7E020200001F3F20C6
:100C8000200000FEFE000000003F3F0000000202C6
:100C90007EFC800020203F1F001C060C0C180E005C
:100CA0000000000000FFFFFFFFFFFF3F3F3F3F3F0F
:100CB0003F680019804000010204081020408001B4
:100CC0000204081020010204081020000000002582
:100CD0000028002B0004040404040404040202029B
:100CE00002020203030303030302511911241FBE6E
:100CF000CFEFD8E0DEBFCDBF12E0A0E0B1E0E2ED83
:100D0000FDE302C005900D92A631B107D9F722E0AC
:100D1000A6E1B2E001C01D92A139B207E1F716E0E9
:100D2000C6E7D6E004C02197FE010E94041CC53727
:100D3000D107C9F70E94EF0F0C94E71E0C94000036
:100D4000AF92BF92CF92DF92EF92FF920F931F93D9
:100D5000CF93DF936C017B018B01040F151FEB0117
:100D60005E01AE18BF08C017D10759F06991D601CE
:100D7000ED91FC910190F081E02DC6010995892B40
:100D800079F7C501DF91CF911F910F91FF90EF90FF
:100D9000DF90CF90BF90AF900895833081F028F41A
:100DA000813099F08230A9F008958730A9F0883019
:100DB000C9F08430B1F4809180008F7D03C08091B0
:100DC00080008F7780938000089584B58F7784BDED
:100DD000089584B58F7DFBCF8091B0008F7780938D
:100DE000B00008958091B0008F7DF9CFCF93DF934D
:100DF000282F30E0F901EB55FF4F8491F901E954B8
:100E0000F34FD491F901EB52F34FC491CC23A1F0ED
:100E100081110E94CD06EC2FF0E0EE0FFF1FE5568A
:100E2000FF4FA591B491EC91ED2381E090E009F49E
:100E300080E0DF91CF91089580E090E0FACF1F939A
:100E4000CF93DF93282F30E0F901EB55FF4F8491CA
:100E5000F901E954F34FD491F901EB52F34FC491E6
:100E6000CC23A9F0162F81110E94CD06EC2FF0E0C3
:100E7000EE0FFF1FE553F34FA591B4918FB7F89490
:100E8000EC91111108C0D095DE23DC938FBFDF9168
:100E9000CF911F910895DE2BF8CF90911401891303
:100EA0000BC0E9EEFCE0E4919FEF90931401E13078
:100EB00049F028F0E23061F060E00C941F071092D6
:100EC0006E00FACF90916F009D7F90936F00F4CFEA
:100ED000909170009D7F9093700091E09093B0008E
:100EE0009091B100987F94609093B1001092B300FC
:100EF000E3CFCF93DF9390E0FC01E954F34F2491CB
:100F00008B52934FFC0184918823D1F090E0880F9D
:100F1000991FFC01EF56FF4FA591B491FC01E553D9
:100F2000F34FC591D49161110EC09FB7F8948C9185
:100F3000E22FE0958E238C932881E223E8839FBFE4
:100F4000DF91CF9108958FB7F894EC91E22BEC9359
:100F50008FBFF6CFCF9380911401853021F08F3F62
:100F600059F1CF910895E9EEFCE0C491C7FDF9CFA6
:100F700061E085E00E947907CC2309F48BC0C23080
:100F800009F09FC08091B100887F83608093B10099
:100F90008FE58093B3008FEF9FEFDC0180937002A9
:100FA00090937102A0937202B093730280917000CB
:100FB000826080937000D5CF85E080931401E9EEC4
:100FC000FCE0C491CF3F69F2C13021F150F0C23052
:100FD00009F43EC0C7FDC5CF61E085E00E947907F6
:100FE000CECF14BC15BC84B5826084BD85B581604C
:100FF00085BDEAEDFCE0E491F0E0EE0FFF1FE55364
:10100000F34F85919491ECEBFCE0E491E0936F0257
:10101000C0E0AECF109280001092810080918100DC
:10102000886080938100809181008160809381003D
:10103000EAEDFCE0E491F0E0EE0FFF1FE553F34F23
:1010400085919491ECEBFCE0E491E0936E0290CFFB
:101050001092B0001092B1008091B0008260809335
:10106000B0008091B10081608093B100EAEDFCE0B6
:10107000E491F0E0EE0FFF1FE553F34F859194915B
:1010800090936D0280936C02ECEBFCE0E491E093B2
:101090006B026ECF85B5887F836085BD8FE287BD8B
:1010A0008FEF9FEFDC018093780290937902A093F9
:1010B0007A02B0937B0280916E00826080936E0012
:1010C00050CFC130E9F480918100887F81608093A6
:1010D000810083E09CE090938900809388008FEFEB
:1010E0009FEFDC018093740290937502A0937602C7
:1010F000B093770280916F00826080936F0031CF50
:10110000C23021F0C1112DCF83E0C9CF83E041CFA0
:101110002091000190E4299F90011124822B80935B
:101120007C0080917A00806480937A0080917A00BC
:1011300086FDFCCF809178009091790008953FB7AB
:10114000F8948091230290912402A0912502B091FD
:10115000260226B5A89B05C02F3F19F00196A11DB8
:10116000B11D3FBFBA2FA92F982F8827BC01CD01F1
:10117000620F711D811D911D42E0660F771F881F50
:10118000991F4A95D1F708958F929F92AF92BF927F
:10119000CF92DF92EF92FF924B015C010E949F0879
:1011A0006B017C010E949F086C197D098E099F09C3
:1011B000683E734081059105A8F321E0821A9108E9
:1011C000A108B10888EEC80E83E0D81EE11CF11C0E
:1011D00081149104A104B10429F7FF90EF90DF90EE
:1011E000CF90BF90AF909F908F9008952FB7F894B5
:1011F00060911F0270912002809121029091220241
:101200002FBF0895CF93DF93EC018D85882329F0BC
:1012100081508D87DF91CF9108959C818E819817A1
:10122000C8F788896827E881F9810084F185E02D75
:1012300042E0CE0109958C818F5F8C83EBCFDC017E
:10124000ED91FC910084F185E02D40E009940F932D
:101250001F93CF938C01FC016483C085C60F6C2F54
:101260006F700E941F096C2F62956F706061C801DA
:10127000CF911F910F910C941F09FC012781269596
:1012800026952695621738F465832385620F67706B
:10129000606B0C941F0908951F93CF93DF93EC01AB
:1012A000142F8E81681718F4CE010E942709612F30
:1012B000CE01DF91CF911F910C943D09CF92DF9227
:1012C000EF92FF920F931F93CF93DF93EC01F62ED3
:1012D000C42ED22E1D868F818695869586950817F9
:1012E00010F00FEF080F1D2D011780F0412F6F2D0B
:1012F000CE010E944C09EF2CCE1430F06889CE014B
:101300000E940209E394F8CF1F5FEECF4D2D6F2DA1
:10131000CE01DF91CF911F910F91FF90EF90DF9061
:10132000CF900C944C092F923F924F925F926F9204
:101330007F928F929F92AF92BF92CF92DF92EF9265
:10134000FF920F931F93CF93DF9300D000D000D074
:10135000CDB7DEB7DC011E962D913C9121153105EC
:1013600009F478C19E838D83F90132966490319699
:101370004491E42EF12CB7E0EB0EF11C53E0F59410
:10138000E7945A95E1F7E982319654913196E491C8
:10139000651748F08E2F90E0FC01E50FF11D6E17E8
:1013A0001F060CF492C06D3031F5ED81FE8186810F
:1013B00081111BC081E090E026960FB6F894DEBF45
:1013C0000FBECDBFDF91CF911F910F91FF90EF9096
:1013D000DF90CF90BF90AF909F908F907F906F9055
:1013E0005F904F903F902F90089560E08D819E8197
:1013F0000E942709DFCF6A3009F02CC1AD81BE8180
:1014000016968C911697882321F060E0CD010E94FA
:101410002709ED81FE8101890E9DE02C1124658153
:101420006E0D8485882349F027812695269526957B
:101430008E2D821B860F18162CF08D819E810E94A6
:101440003D09B8CFAD81BE811B969C911B97890F3A
:1014500087701B968C931B972E1915962C931597B6
:101460001E96ED91FC91309771F13396E491F0E086
:10147000379633E0F595E7953A95E1F70E9F002D05
:101480001124EFEFE20F0E0FED81FE8146814150F6
:101490006481CF010E945E09AD81BE811C968C9152
:1014A0001C97813009F086CF1B966C911B97660FB5
:1014B000660F660F6F731A966C931A976064CD016E
:1014C0000E941F0977CF00E0DCCF89010A5F1F4F20
:1014D000651BED81FE8171855189759F502D112409
:1014E0005C83F90154912F5F3F4FF9012491352F0F
:1014F0002230310508F070C06E9CC0016F9C900DC9
:101500001124689FF001699FF00D11240E0F1F1F19
:10151000512CAD81BE811496BC91BA83ED81FE81C0
:101520002580F585FB83862C912CAA24A394B12CCD
:10153000312C8981381608F08BC0412CAD81BE81D9
:1015400051968C915197481608F07BC0EB811D96FF
:10155000EC93311002C0442051F0AD81BE8115964C
:101560004C9115974F5F6A81CD010E944C09D12C97
:10157000C12CC61408F058C0F801EC0DFD1D749084
:10158000552061F0EA14FB0449F4E72DF0E0052C46
:1015900002C0F595E7950A94E2F77E2EED81FE8173
:1015A0008189823081F4442009F43AC072948FE03A
:1015B0007822E72DF0E0EF57FF4F7490672D8D8173
:1015C0009E810E940209672D8D819E810E940209E1
:1015D0008FEFC81AD80ACDCF477028E0522E541A80
:1015E000411101C0512CF801612C30E020E0661659
:1015F00031F04491240F311D63943196F8CF600E81
:10160000712E711CF3016490E29EF001E39EF00DD7
:10161000F29EF00D11248E0F9F1F080F191F79CF16
:10162000F72DFF707F2EC5CFD12CAC81DA1639F0A3
:1016300060E08D819E810E940209D394F6CF43948D
:101640007DCF3394080D191DBFEFAB1ABB0A71CFC4
:10165000622DF3CE90E080E0AFCE0F93CF93DF9377
:10166000EC011B861A8660E40E941F090F81069513
:101670000695069501504E81415020E060E0CE0174
:101680000E945E09DF91CF910F91089584E98093C4
:10169000BC0085E69091BC0094FF03C08150D1F757
:1016A000089581E008950E94AA0762E370E080E057
:1016B00090E00E94C40885E00C944D07CF9386E02B
:1016C0000E94F606C1E0019709F0C0E087E00E94A1
:1016D000F606019709F4CE5F88E00E94F6060197AE
:1016E00009F4CC5F8C2FCF910895FC016093BC006E
:1016F0002FEF3FEF8091BC0087FF06C09091B900AB
:10170000987F908381E008952150310999F780E016
:101710000895CF93DF93EC016093BB0064E80E94CF
:10172000750B882329F081E09881983209F080E0D8
:10173000DF91CF910895DF92EF92FF920F931F9365
:10174000CF93DF93EC01D62EF42E8C89882329F0D9
:10175000411103C00E94460B1C8A8E010E5E1F4F72
:101760008C89811119C0EB8864EAC8010E94750B4D
:10177000882361F08A89883011F0803139F4EE0CC9
:10178000E092BB0064E8C8010E94750B60E0F110B4
:1017900060E4C8010E94890B6D2DC8010E94890B6D
:1017A00082E0F8120BC08C898F5F8C8BDF91CF9118
:1017B0001F910F91FF90EF90DF9008950E94460BCC
:1017C0001C8AF4CF089590E080E00895FC01019018
:1017D0000020E9F73197AF01481B590BBC018CE79A
:1017E00092E00C94A0068F929F92AF92BF920F93BB
:1017F0001F93CF93DF93CDB7DEB7A1970FB6F894C1
:10180000DEBF0FBECDBF19A2423008F44AE08E0100
:101810000F5D1F4F842E912CB12CA12CA50194019A
:101820000E94E21BE62FB901CA01EA30F4F4E05D40
:10183000D801EE938D01232B242B252B79F790E0F3
:1018400080E0109719F0CD010E94E60BA1960FB62B
:10185000F894DEBF0FBECDBFDF91CF911F910F91E6
:10186000BF90AF909F908F900895E95CE1CF0C946A
:10187000E60BCF93DF930E94E60BEC0183E291E04D
:101880000E94E60B8C0F9D1FDF91CF910895BC0144
:1018900090E080E04AE00C94F30B8F929F92AF921D
:1018A000BF92CF92DF92EF92FF92CF93DF936B01C3
:1018B0007C01AC019B010E94B51B882371F086E27C
:1018C00091E0DF91CF91FF90EF90DF90CF90BF90AC
:1018D000AF909F908F900C94E60B46015701E894CF
:1018E000B7F82FEF3FEF4FE75FE7C501B4010E9464
:1018F000B51B81110DC02FEF3FEF4FE75FE7C5012B
:10190000B4010E94E41918161CF48AE291E0D9CFC0
:101910002FEF3FEF4FE75FE4C701B6010E94431B83
:1019200018161CF48EE291E0CCCF2FEF3FEF4FE77B
:101930005FECC701B6010E94E41987FDF3CF20E0F8
:1019400030E0A901C701B6010E94E419D0E0C0E06F
:1019500087FF0AC06DE28CE792E00E949309EC01D8
:10196000F7FAF094F7F8F0942AE037ED43EA5BE3F6
:10197000C701B6010E9478194B015C010E94621AEE
:101980006B017C010E94911A9B01AC01C501B4015D
:101990000E9477194B015C014AE0C701B6010E9421
:1019A000F30BC80FD91F6EE28CE792E00E949309F7
:1019B000C80FD91F20E030E040E251E4C501B40176
:1019C0000E94481B4B015C010E94621A6B01CB0113
:1019D0000E94470CC80FD91FB60190E080E00E941A
:1019E000911A9B01AC01C501B4010E94771920E056
:1019F00030E040E251E40E94481B0E94621ACB0191
:101A00000E94470C8C0F9D1FDF91CF91FF90EF90AC
:101A1000DF90CF90BF90AF909F908F900895CF921E
:101A2000DF92EF92FF92CF93DF936C01990FEE0854
:101A3000FF08F7FE19C06DE28CE792E00E9493095F
:101A4000EC0166277727CB016C197D098E099F0968
:101A50004AE00E94F30B8C0F9D1FDF91CF91FF9006
:101A6000EF90DF90CF9008954AE0C701B601DF9173
:101A7000CF91FF90EF90DF90CF900C94F30BFF92FB
:101A80000F931F93CF93DF93EC018B01FB01F08049
:101A90000E946119F81621F06F2DCE010E9469197C
:101AA000F801F1802196CE010E946119F81621F00B
:101AB0006F2DCE010E946919C801DF91CF911F914E
:101AC0000F91FF9008959F92AF92BF92CF92DF92B5
:101AD000EF92FF920F931F93CF93DF935C017B01F3
:101AE0008B01D0E0C0E0F80191908F016501CC0E30
:101AF000DD1EC6010E946119981621F0692DC601EC
:101B00000E9469192196C430D10569F7C701DF9198
:101B1000CF911F910F91FF90EF90DF90CF90BF90EA
:101B2000AF909F900895CF92DF92EF92FF920F9324
:101B30001F93CF93DF93EB017B0124E0E20EF11CB6
:101B40008B016C01C61AD70AC601800F911F0E9433
:101B50006119F80181938F01EE15FF05A9F7CE01F8
:101B6000DF91CF911F910F91FF90EF90DF90CF9079
:101B700008950E940A1C1F920F920FB60F92112413
:101B80002F933F934F935F936F937F938F939F9385
:101B9000AF93BF93EF93FF93809170029091710286
:101BA000A0917202B0917302892B8A2B8B2BD1F1F9
:101BB00090916B02E0916C02F0916D028081892717
:101BC00080838091700290917102A0917202B09115
:101BD0007302181619061A061B069CF480917002EF
:101BE00090917102A0917202B09173020197A109C4
:101BF000B1098093700290937102A0937202B09326
:101C00007302FF91EF91BF91AF919F918F917F915F
:101C10006F915F914F913F912F910F900FBE0F9059
:101C20001F901895809114010E944D07EACF1F92D2
:101C30000F920FB60F9211242F933F938F939F9380
:101C4000AF93BF9380911F0290912002A091210237
:101C5000B091220230911E0223E0230F2D3758F558
:101C60000196A11DB11D20931E0280931F02909327
:101C70002002A0932102B09322028091230290912E
:101C80002402A0912502B09126020196A11DB11D4A
:101C90008093230290932402A0932502B0932602FE
:101CA000BF91AF919F918F913F912F910F900FBE58
:101CB0000F901F90189526E8230F0296A11DB11DC5
:101CC000D2CF1F920F920FB60F9211244F925F92B4
:101CD0006F927F928F929F92AF92BF92CF92DF923C
:101CE000EF92FF922F933F934F935F936F937F9366
:101CF0008F939F93AF93BF93CF93DF93EF93FF9314
:101D000080E00E948808EC0190931D0280931C02E1
:101D100081E00E9488087C0190932802809327022A
:101D200020E030E040E251E4609118027091190225
:101D300080911A0290911B020E94481B4B015C018A
:101D4000B70190E080E00E94911A9B01AC01C501AF
:101D5000B4010E94781920E030E040E351E40E9491
:101D6000E9196B017C01C0921802D0921902E0922D
:101D70001A02F0921B02BE0190E080E00E94911ACC
:101D800028E638EE4FE15BE30E94481B60932D028A
:101D900070932E0280932F029093300229E23CE54B
:101DA0004FE150E4C701B6010E94481B20E030E03B
:101DB0004CE352E40E94E9196B017C01C0923502A8
:101DC000D0923602E0923702F092380220913B0224
:101DD00030913C0240913D0250913E020E947819A0
:101DE00060933B0270933C0280933D0290933E02CD
:101DF00020E030E04AE754E40E94E9192B013C015D
:101E000024EA3CE842E95AE30E94481B4B015C018A
:101E100080925D0290925E02A0925F02B092600298
:101E200020E030E0A901C701B6010E94E41988232F
:101E300051F1A5019401609161027091620280915B
:101E40006302909164020E94771924EA3CE842E917
:101E50005AE30E94E91920E030E04AE754E40E9486
:101E6000481BA70196010E94E9190E945B1A072EE0
:101E7000000C880B990B60933102709332028093AF
:101E800033029093340220EE30E24FE85EE3C30168
:101E9000B2010E94481B60934102709342028093FA
:101EA00043029093440220E030E04AE754E460911A
:101EB00010017091110180911201909113010E9403
:101EC000481B20E034E244E759E40E94E9199B01F1
:101ED000AC01C501B4010E94E91960930C01709333
:101EE0000D0180930E0190930F0120910601309116
:101EF00007014091080150910901C701B6010E94F4
:101F0000E41987FF67C080910A0190910B019093BB
:101F1000170280931602C0913902D0913A02CE0185
:101F20006AE070E00E94BA1B892B41F4209731F0DF
:101F30008091030191E0892780930301609116024B
:101F4000709117026115710571F0CE010E94BA1BE4
:101F5000892B49F46091010181E0682760930101B8
:101F60008AE00E941F078091590290915A02A09125
:101F70005B02B0915C020196A11DB11D80935902D4
:101F800090935A02A0935B02B0935C022196D09387
:101F90003A02C0933902FF91EF91DF91CF91BF9147
:101FA000AF919F918F917F916F915F914F913F91F1
:101FB0002F91FF90EF90DF90CF90BF90AF909F90C8
:101FC0008F907F906F905F904F900F900FBE0F900B
:101FD0001F901895809104019091050198CFCF939F
:101FE000DF9300D000D01F92CDB7DEB7789484B5D0
:101FF000826084BD84B5816084BD85B5826085BD05
:1020000085B5816085BD80916E00816080936E0092
:102010001092810080918100826080938100809184
:102020008100816080938100809180008160809335
:1020300080008091B10084608093B1008091B000F5
:1020400081608093B00080917A00846080937A00F0
:1020500080917A00826080937A0080917A0081601A
:1020600080937A0080917A00806880937A00109241
:10207000C100F894109280001092810010928500A7
:102080001092840083E294EF9093890080938800FB
:1020900080918100886080938100809181008460BC
:1020A0008093810080916F00826080936F007894AC
:1020B00080918100887F8093810060E086E00E94AB
:1020C000790760E086E00E941F0760E087E00E94D9
:1020D000790760E087E00E941F0760E088E00E94C7
:1020E000790760E088E00E941F0761E089E00E94B4
:1020F000790761E089E00E941F0761E085E00E94A6
:10210000790761E08AE00E94790760E08AE00E9436
:102110001F07109290028CE380938F021092B900F7
:1021200084E48093BC008CE08093B800109280021D
:1021300010928102E1EBFCE085919491082FE3EB92
:10214000FCE01491E4EBFCE0E491E0938202E5EB27
:10215000FCE0E491E0938302E6EBFCE0E491E093A1
:10216000840289839A838981801B811770F4E981B5
:10217000FA8164918CE792E00E941F0929813A81DB
:102180002F5F3F4F3A832983EECF8CE792E00E9486
:102190002D0B61E88CE792E00E941F0964E68CE752
:1021A00092E00E941F098CE792E00E942D0B82E0D2
:1021B00080938D02EBE2F8E0F0938B02E0938A02C9
:1021C0008491ECE2F8E0E491F82F319709F010C522
:1021D0001092850282E391E00E94390C8BE391E03A
:1021E0000E94390C91E090938D02E9EBF0E0F093BE
:1021F0008B02E0938A028491EAEBF0E0E491F82FFD
:10220000319709F0F9C41092850260ED77E080E023
:1022100090E00E94C4081092000190E080E00E94CB
:102220006119813009F051C060E171E081E090E016
:102230000E94930DFC0180819181A281B3818093E2
:10224000100190931101A0931201B09313016CE05F
:1022500071E085E090E00E94930DFC018081918106
:10226000A281B38180930C0190930D01A0930E0184
:10227000B0930F0189E090E00E94611980930A01F8
:102280008AE090E00E94611980930B018BE090E05E
:102290000E946119809304018CE090E00E94611912
:1022A0008093050166E071E08DE090E00E94930D5F
:1022B000FC0180819181A281B3818093060190937A
:1022C0000701A0930801B09309019CE3C92ED12C0A
:1022D000E12CF12C05EC11E025E4222E22E0322E37
:1022E0008090100190901101A0901201B090130104
:1022F0008CE792E00E942D0B40E063E08CE792E0D7
:102300000E944C0984E491E00E94370C44E068E0AC
:102310008CE792E00E944C09C501B4010E944D0C6B
:1023200080E591E00E94370C0E945E0B813009F03D
:1023300042C08090100190901101A0901201B090C5
:10234000130120E030E040EA50E4C501B4010E94EE
:10235000E41987FF1EC021E73DE34AE45FE3C501BE
:10236000B4010E94E4192AE037ED43E25CE3181659
:1023700024F42DEC3CEC4CE45DE3C501B4010E9477
:10238000781960931001709311018093120190935A
:10239000130144E068E08CE792E00E944C096091F0
:1023A00010017091110180911201909113010E940E
:1023B0004D0C0E94530B0E945E0B823009F042C00C
:1023C0008090100190901101A0901201B090130123
:1023D0002DEC3CEC4CE45DE3C501B4010E94431BD1
:1023E0001816F4F42DEC3CEC4CE45FE3C501B401A9
:1023F0000E94E4192AE037ED43E25CE387FD04C064
:102400002DEC3CEC4CE45DE3C501B4010E9477196E
:102410006093100170931101809312019093130146
:1024200044E068E08CE792E00E944C096091100162
:102430007091110180911201909113010E944D0C35
:102440000E94530B0E94F6084B015C0180916702C9
:1024500090916802A0916902B0916A02A50194016D
:10246000281B390B4A0B5B0BDA01C90188389341F1
:10247000A105B10508F4C3C362E370E080E090E019
:102480000E94C4080E945E0B811108C080926702FE
:1024900090926802A0926902B0926A020E945E0B5A
:1024A000843009F041CF0E94530B80900C01909032
:1024B0000D01A0900E01B0900F018CE792E00E94F8
:1024C0002D0B40E069E08CE792E00E944C0987E523
:1024D00091E00E94370C44E06DE18CE792E00E94AD
:1024E0004C09C501B4010E945B1ACB010E940F0D7B
:1024F00082E691E00E94370C0E945E0B813009F069
:1025000049C080900C0190900D01A0900E01B090F8
:102510000F0120E030E04AE754E4C501B4010E9415
:10252000E41987FF1EC020E030E040EA51E4C50115
:10253000B4010E94E41920E030E040E85FE387FD49
:1025400004C020E030E040EA50E4C501B4010E943C
:10255000781960930C0170930D0180930E01909394
:102560000F0144E06DE18CE792E00E944C0960911C
:102570000C0170910D0180910E0190910F010E944C
:102580005B1ACB010E940F0D88E691E00E94390C86
:102590000E94530B0E945E0B823009F049C080906C
:1025A0000C0190900D01A0900E01B0900F0120E061
:1025B00030E040E85FE3C501B4010E94431B1816F8
:1025C000F4F420E030E040EA51E4C501B4010E9497
:1025D000E41920E030E040E85FE387FD04C020E03C
:1025E00030E040EA50E4C501B4010E9477196093DD
:1025F0000C0170930D0180930E0190930F0144E044
:102600006DE18CE792E00E944C0960910C017091A1
:102610000D0180910E0190910F010E945B1ACB0178
:102620000E940F0D88E691E00E94390C0E94530B26
:102630000E94F6084B015C0180916702909168024C
:10264000A0916902B0916A02A5019401281B390B7F
:102650004A0B5B0BDA01C90188389341A105B1052A
:1026600008F4D4C262E370E080E090E00E94C40805
:102670000E945E0B811108C08092670290926802EE
:10268000A0926902B0926A020E945E0B843009F047
:1026900033CF0E94530B40910A0150910B015A8392
:1026A00049838CE792E00E942D0B40E064E08CE7C8
:1026B00092E00E944C098FE691E00E94370C44E0C2
:1026C0006AE18CE792E00E944C0989819A810E941C
:1026D000470C8BE791E00E94370C0E945E0B813023
:1026E000F9F480910A0190910B01883552E0950729
:1026F00028F4019690930B0180930A0144E06AE16B
:102700008CE792E00E944C0980910A0190910B01A4
:102710000E94470C81E891E00E94370C0E94530B05
:102720000E945E0B8230E9F480910A0190910B01C6
:10273000009729F0019790930B0180930A0144E0E0
:102740006AE18CE792E00E944C0980910A01909125
:102750000B010E94470C81E891E00E94370C0E9417
:10276000530B0E94F6084B015C0180916702909127
:102770006802A0916902B0916A02A5019401281B28
:10278000390B4A0B5B0BDA01C90188389341A1056B
:10279000B10508F442C262E370E080E090E00E947C
:1027A000C4080E945E0B811108C08092670290925B
:1027B0006802A0926902B0926A020E945E0B8430A5
:1027C00009F08BCF0E94530B809006019090070177
:1027D000A0900801B09009018CE792E00E942D0BB7
:1027E00040E064E08CE792E00E944C0988E891E0C8
:1027F0000E94370C44E06AE18CE792E00E944C09A9
:10280000C501B4010E944D0C82E991E00E94370C91
:102810000E945E0B8130C1F5809006019090070107
:10282000A0900801B090090120E030E040E251E4BE
:10283000C501B4010E94E41987FF10C02DEC3CECE7
:102840004CEC5DE3C501B4010E9478196093060168
:1028500070930701809308019093090144E06AE1B5
:102860008CE792E00E944C0960910601709107018B
:1028700080910801909109010E944D0C86E991E038
:102880000E94370C0E94530B0E945E0B8230B9F5F8
:102890008090060190900701A0900801B090090176
:1028A00020E030E0A901C501B4010E94E4198823A9
:1028B00081F02DEC3CEC4CEC5DE3C501B4010E94D1
:1028C0007719609306017093070180930801909334
:1028D000090144E06AE18CE792E00E944C096091B2
:1028E00006017091070180910801909109010E94F1
:1028F0004D0C86E991E00E94370C0E94530B0E9418
:10290000F6084B015C018091670290916802A091EA
:102910006902B0916A02A5019401281B390B4A0B88
:102920005B0BDA01C90188389341A105B10508F4B0
:102930007BC162E370E080E090E00E94C4080E94E6
:102940005E0B811108C08092670290926802A0928B
:102950006902B0926A020E945E0B843009F058CF7F
:102960000E94530B40910401509105015A83498301
:102970008CE792E00E942D0B40E064E08CE792E04F
:102980000E944C098BE991E00E94370C44E06AE117
:102990008CE792E00E944C0989819A810E94470C41
:1029A0008BE791E00E94370C0E945E0B8130F9F4B6
:1029B0008091040190910501883552E0950728F433
:1029C0000196909305018093040144E06AE18CE74D
:1029D00092E00E944C0980910401909105010E94AF
:1029E000470C81E891E00E94370C0E94530B0E9433
:1029F0005E0B8230E9F4809104019091050100970B
:102A000029F00197909305018093040144E06AE165
:102A10008CE792E00E944C0980910401909105019D
:102A20000E94470C81E891E00E94370C0E94530BF2
:102A30000E94F6084B015C01809167029091680248
:102A4000A0916902B0916A02A5019401281B390B7B
:102A50004A0B5B0BDA01C90188389341A105B10526
:102A600008F4E9C062E370E080E090E00E94C408EE
:102A70000E945E0B811108C08092670290926802EA
:102A8000A0926902B0926A020E945E0B843009F043
:102A90008BCF0E94530B61E090E080E00E946919A7
:102AA00060E171E081E090E00E94630D6CE071E014
:102AB00085E090E00E94630D6AE071E089E090E0BB
:102AC0000E943F0D64E071E08BE090E00E943F0DBA
:102AD00066E071E08DE090E00E94630D8CE792E08B
:102AE0000E942D0B68EE73E080E090E00E94C40825
:102AF00085E0882E912C40E060E08CE792E00E9417
:102B00004C0960910C0170910D0180910E01909122
:102B10000F010E945B1ACB010E940F0D87EA91E022
:102B20000E94370C42E060E08CE792E00E944C0982
:102B30006091100170911101809112019091130127
:102B40000E944D0C80E591E00E94370C44E060E06B
:102B50008CE792E00E944C0960910C0170910D018C
:102B600080910E0190910F010E945B1ACB01B4017C
:102B70000E94CE1BCB010E940F0D8CEA91E00E94B7
:102B8000370C46E060E08CE792E00E944C0982EB53
:102B900091E00E94370C0E945E0B482F50E05A8350
:102BA0004983509366024093650210923A02109254
:102BB0003902A0903902B0903A0254E6A516B10449
:102BC00008F040C00E945E0B8430E1F10E945E0B71
:102BD0008130C1F164E170E080E090E00E94C408BF
:102BE0008FEFA81AB80AB0923A02A0923902E1CF48
:102BF00081E080938502EECA9093850206CB6CE259
:102C000071E080E090E00E94C40848CC6CE271E082
:102C100080E090E00E94C40837CD6CE271E080E073
:102C200090E00E94C408C9CD6CE271E080E090E0C1
:102C30000E94C40890CE6CE271E080E090E00E94B7
:102C4000C40822CFE981FA81E430F10531F0E230A5
:102C5000F10519F0319709F04ECF0E94530B2981ED
:102C60003A812430310521F02230310509F038CB8A
:102C700068EE73E080E090E00E94C4088CE792E088
:102C80000E942D0B42E060E08CE792E00E944C092C
:102C900082E080938D028EEB91E00E94370C81E000
:102CA00080938D020E945E0B90E090936602809369
:102CB00065020497B9F70E94530B8CE792E00E94DB
:102CC0002D0B20E030E04AE754E460911001709150
:102CD000110180911201909113010E94481B20E084
:102CE00034E244E759E40E94E91920910C01309143
:102CF0000D0140910E0150910F010E94481B6093FD
:102D0000610270936202809363029093640260E0B8
:102D100089E00E941F078091810084608093810078
:102D200064E670E080E090E00E94C40880910201B7
:102D3000882309F45DC2309103013D8340E062E1E4
:102D40008CE792E00E944C094D81442309F4B6C1FE
:102D50008090590290905A02A0905B02B0905C0261
:102D6000C501B401A70196010E94E21B2B013C01A1
:102D700060935502C501B401641975098609970964
:102D8000A70196010E94E21B49015A01CA01B9013B
:102D9000A70196010E94E21B69837A838B839C833F
:102DA000598150935602C501B40129813A814B8162
:102DB0005C81621B730B840B950BA70196010E942B
:102DC000E21B20935702309358025F924F924A8140
:102DD0004F9359815F933F932F931F930F933F928C
:102DE0002F920E940F1C85E492E00E94370C0FB6D0
:102DF000F894DEBF0FBECDBF42E062E18CE792E007
:102E00000E944C099D81992309F499C160910C019C
:102E100070910D0180910E0190910F010E944D0C57
:102E20008CED91E00E94370C44E062E18CE792E087
:102E30000E944C09ED81EE2309F4B0C1609141027A
:102E40007091420280914302909144020E944D0C85
:102E500085EE91E00E94370C46E062E18CE792E05B
:102E60000E944C09609135027091360280913702C0
:102E7000909138020E944D0C81EF91E00E94370C36
:102E80008090390290903A02B12CA12C80912902B5
:102E900090912A02A0912B02B0912C02A5019401DD
:102EA000281B390B4A0B5B0BDA01C90180369A4E9D
:102EB000AF4FBF4F08F4A1C1109202010E945E0BF8
:102EC000882341F08092290290922A02A0922B023C
:102ED000B0922C0280910201882379F08091010147
:102EE00040E069E6882309F48CC18CE792E00E94F7
:102EF0004C098AED91E00E94370C0E945E0B8730EE
:102F000011F40E94530B20916102309162024091B2
:102F100063025091640260915D0270915E02809143
:102F20005F02909160020E94E41918160CF0F8CE2E
:102F300061E089E00E941F0780918100887F809373
:102F4000810060E08AE00E941F078CE792E00E9407
:102F50002D0B40E062E18CE792E00E944C098090EA
:102F6000590290905A02A0905B02B0905C02C50199
:102F7000B401A70196010E94E21B2B013C01609362
:102F80005502C501B4016419750986099709A7019D
:102F900096010E94E21B49015A01CA01B901A70129
:102FA00096010E94E21B69837A838B839C835981FB
:102FB00050935602C501B40129813A814B815C814D
:102FC000621B730B840B950BA70196010E94E21BF9
:102FD00020935702309358025F924F924A814F9349
:102FE00059815F933F932F931F930F933F922F929B
:102FF0000E940F1C85E492E00E94370C42E062E1DF
:103000008CE792E00E944C0960910C0170910D01D7
:1030100080910E0190910F010E944D0C8CED91E07A
:103020000E94370C44E062E18CE792E00E944C0978
:10303000609141027091420280914302909144025A
:103040000E944D0C85EE91E00E94370C46E062E153
:103050008CE792E00E944C098CE092E00E94370CD1
:1030600081E090E09093400280933F020FB6F89485
:10307000DEBF0FBECDBFE0913F02F0914002FA8368
:10308000E9833B970CF0C4C00E94AA0768EE73E086
:1030900080E090E00E94C40885E00E944D0760E94E
:1030A00071E080E090E00E94C40829813A812F5F9E
:1030B0003F4F3093400220933F02DDCF20E030E0CD
:1030C00040E85FE3609135027091360280913702EB
:1030D000909138020E94431B181664F580903102CB
:1030E00090903202A0903302B0903402C501B40136
:1030F000A70196010E94E21B2B013C01609355023F
:10310000C501B4016419750986099709A7019601DB
:103110000E94E21B49015A01CA01B901A7019601A7
:103120000E94E21B69837A838B839C8399819093AD
:10313000560239CE84ED91E00E94370C5DCE20918D
:103140005D0230915E0240915F0250916002609199
:1031500061027091620280916302909164020E9408
:1031600077194B015C0120E030E04AE754E46091BC
:1031700010017091110180911201909113010E9430
:10318000481B20E034E244E759E40E94E9199B011E
:10319000AC01C501B4010E94E91940CE2FE135E828
:1031A00047E852E460912D0270912E0280912F0227
:1031B000909130020E94481B0E945B1ACB010E9432
:1031C0000F0D88EF91E00E94370C46E062E18CE73A
:1031D00092E00E944C096091350270913602809114
:1031E0003702909138020E944D0C84E092E046CE66
:1031F0008CE792E00E942D0B43CE41E04093020108
:1032000069CE8CE792E00E944C098AE092E073CE8E
:103210000E945E0B282F30E03093660220936502F7
:103220002430310519F08150823090F710923B0222
:1032300010923C0210923D0210923E0210923A020D
:10324000109239021092590210925A0210925B02A7
:1032500010925C021092580210925702109256027D
:103260001092610210926202109263021092640244
:1032700010925D0210925E0210925F021092600244
:1032800081E08093020168EE73E080E090E00E94AC
:10329000C40840E050E0452B09F422C80E94000019
:1032A0001FC8ECE7F2E01382128214861586178697
:1032B0001686108A81E0818B89E191E09183808379
:1032C0000895F999FECF92BD81BDF89A992780B5EE
:1032D0000895262FF999FECF1FBA92BD81BD20BD5A
:1032E0000FB6F894FA9AF99A0FBE019608955058BD
:1032F000BB27AA270E948F190C94091B0E94FB1A56
:1033000038F00E94021B20F039F49F3F19F426F494
:103310000C94F81A0EF4E095E7FB0C94F21AE92FDE
:103320000E941A1B58F3BA176207730784079507A0
:1033300020F079F4A6F50C943C1B0EF4E0950B2ECE
:10334000BA2FA02D0B01B90190010C01CA01A001F7
:103350001124FF27591B99F0593F50F4503E68F152
:103360001A16F040A22F232F342F4427585FF3CF93
:10337000469537952795A795F0405395C9F77EF464
:103380001F16BA0B620B730B840BBAF09150A1F0AD
:10339000FF0FBB1F661F771F881FC2F70EC0BA0F33
:1033A000621F731F841F48F4879577956795B795BB
:1033B000F7959E3F08F0B0CF9395880F08F09927B6
:1033C000EE0F9795879508950E94CE1A08F481E034
:1033D00008950E94FD190C94091B0E94021B58F0CD
:1033E0000E94FB1A40F029F45F3F29F00C94F21A76
:1033F00051110C943D1B0C94F81A0E941A1B68F38F
:103400009923B1F3552391F3951B550BBB27AA279D
:1034100062177307840738F09F5F5F4F220F331FD7
:10342000441FAA1FA9F335D00E2E3AF0E0E832D09F
:1034300091505040E695001CCAF72BD0FE2F29D0A2
:10344000660F771F881FBB1F261737074807AB0774
:10345000B0E809F0BB0B802DBF01FF2793585F4FE9
:103460003AF09E3F510578F00C94F21A0C943D1BF3
:103470005F3FE4F3983ED4F3869577956795B795CB
:10348000F7959F5FC9F7880F911D9695879597F9D6
:103490000895E1E0660F771F881FBB1F621773074F
:1034A0008407BA0720F0621B730B840BBA0BEE1F64
:1034B00088F7E09508950E94621A6894B1110C94FF
:1034C0003D1B08950E94221B88F09F5798F0B92F4A
:1034D0009927B751B0F0E1F0660F771F881F991F49
:1034E0001AF0BA95C9F714C0B13091F00E943C1B94
:1034F000B1E008950C943C1B672F782F8827B85FA4
:1035000039F0B93FCCF3869577956795B395D9F7A0
:103510003EF490958095709561957F4F8F4F9F4FAA
:103520000895E89409C097FB3EF4909580957095B6
:1035300061957F4F8F4F9F4F9923A9F0F92F96E9FF
:10354000BB279395F695879577956795B795F11174
:10355000F8CFFAF4BB0F11F460FF1BC06F5F7F4F11
:103560008F4F9F4F16C0882311F096E911C0772323
:1035700021F09EE8872F762F05C0662371F096E82C
:10358000862F70E060E02AF09A95660F771F881FFB
:10359000DAF7880F9695879597F90895990F00089F
:1035A000550FAA0BE0E8FEEF16161706E807F90715
:1035B000C0F012161306E407F50798F0621B730BB0
:1035C000840B950B39F40A2661F0232B242B252B31
:1035D00021F408950A2609F4A140A6958FEF811DD4
:1035E000811D089597F99F6780E870E060E0089575
:1035F0009FEF80EC089500240A941616170618060B
:103600000906089500240A941216130614060506E6
:103610000895092E0394000C11F4882352F0BB0F77
:1036200040F4BF2B11F460FF04C06F5F7F4F8F4FDA
:103630009F4F089557FD9058440F551F59F05F3F15
:1036400071F04795880F97FB991F61F09F3F79F0C4
:1036500087950895121613061406551FF2CF469546
:10366000F1DF08C0161617061806991FF1CF8695C8
:103670007105610508940895E894BB2766277727AC
:10368000CB0197F908950E94CE1A08F48FEF0895A0
:103690000E945B1B0C94091B0E94FB1A38F00E94CD
:1036A000021B20F0952311F00C94F21A0C94F81AD6
:1036B00011240C943D1B0E941A1B70F3959FC1F3BB
:1036C000950F50E0551F629FF001729FBB27F00DD0
:1036D000B11D639FAA27F00DB11DAA1F649F662725
:1036E000B00DA11D661F829F2227B00DA11D621F74
:1036F000739FB00DA11D621F839FA00D611D221F2E
:10370000749F3327A00D611D231F849F600D211D11
:10371000822F762F6A2F11249F5750409AF0F1F094
:1037200088234AF0EE0FFF1FBB1F661F771F881FFD
:1037300091505040A9F79E3F510580F00C94F21A29
:103740000C943D1B5F3FE4F3983ED4F38695779548
:103750006795B795F795E7959F5FC1F7FE2B880FA3
:10376000911D9695879597F908950E94CE1A880B1A
:10377000990B0895AA1BBB1B51E107C0AA1FBB1FD1
:10378000A617B70710F0A61BB70B881F991F5A95ED
:10379000A9F780959095BC01CD01089597FB072E60
:1037A00016F4009407D077FD09D00E94BA1B07FCDD
:1037B00005D03EF4909581959F4F08957095619541
:1037C0007F4F0895A1E21A2EAA1BBB1BFD010DC05D
:1037D000AA1FBB1FEE1FFF1FA217B307E407F507C1
:1037E00020F0A21BB30BE40BF50B661F771F881F9D
:1037F000991F1A9469F760957095809590959B0133
:10380000AC01BD01CF010895EE0FFF1F0590F491AB
:10381000E02D099481E090E0F8940C94E71EAEE06E
:10382000B0E0E5E1FCE10C94BE1E0D891E8986E046
:103830008C831A8309838FEF9FE79E838D83AE016C
:10384000475E5F4F6F89788DCE0101960E94321CD2
:103850002F813885020F131FF80110822E96E4E0A5
:103860000C94DA1EABE0B0E0E8E3FCE10C94B01E8F
:103870007C013B018A01FC0117821682838181FF52
:10388000C8C1CE0101965C01F7019381F30193FD5C
:10389000859193FF81913F01882309F453C18532BB
:1038A00039F493FD859193FF81913F01853229F48D
:1038B000B70190E00E94221EE7CF912C212C312CE1
:1038C000FFE1F31538F08B3211F190F4803209F1F9
:1038D000833229F137FC3CC020ED280F2A3050F507
:1038E00036FE20C08AE0989E200D1124922E06C03C
:1038F0008D3291F0803371F7689430F8F30193FDC5
:10390000859193FF81913F018111DACF21C06894A5
:1039100031F8689432F8F2CF689433F8EFCF6894B6
:1039200034F8ECCFEAE02E9E200D1124222E68946C
:1039300035F8E4CF8E3229F436FC04C1689436F8A9
:10394000DDCF8C3619F4689437F8D8CF8836B1F2C9
:10395000982F9F7D95549330E0F08336A1F1833703
:10396000C1F1833509F063C02801F2E04F0E511C0C
:10397000F801C080D180692D70E036FC02C06FEF85
:103980007FEFC6010E940C1E4C01689437F882013B
:103990000AC00C5F1F4FFFE3F98388248394912CA6
:1039A0006501E89437F833FE2DC0522C8114910440
:1039B00071F5552009F468CFB70180E290E00E94CC
:1039C000221E5A94F6CFF801808189830E5F1F4F23
:1039D000E4CF2801F2E04F0E511CF801C080D180E5
:1039E000692D70E036FC02C06FEF7FEFC6010E94C8
:1039F000171E4C018201D5CFB70180E290E00E94F2
:103A0000221E2A942814190409F0B0F7CECFF6012B
:103A100037FC859137FE81916F01B70190E00E94DC
:103A2000221E51105A94F1E08F1A9108BFCF8436AC
:103A300019F0893609F077C0F80137FE6BC0608154
:103A40007181828193810C5F1F4FF32DFF763F2E92
:103A500097FF09C090958095709561957F4F8F4F26
:103A60009F4F689437F82AE030E0A5010E94521E6B
:103A7000C82ECA188C2C432C36FE0CC0E89440F893
:103A8000C91440F434FE05C032FC03C0F32DFE7EA1
:103A90004F2E892C44FE95C0FE01EC0DF11D808156
:103AA000803309F087C0242D297E422E842D887012
:103AB000582E43FC95C040FE8FC09C2C821418F4F5
:103AC0002C0C922C981844FE91C0B70180E390E032
:103AD0000E94221E42FE09C088E790E041FE02C01B
:103AE00088E590E0B7010E94221EC91408F48AC03C
:103AF000CA94D12C9FEFC91AD90ACA0CDB1CF60153
:103B000082916F01B70190E00E94221EAC14BD04A7
:103B1000B1F74FCF60817181072E000C880B990B94
:103B20000E5F1F4F92CFD32CE894D4F82AE030E0F8
:103B3000853739F1232D297FD22E8F3601F148F4B4
:103B40008835A9F0F701868197812B96E2E10C94E4
:103B5000CC1E803749F08837A9F7D4FE02C068949C
:103B6000D2F820E130E00DC06894D4F8F6CF34FEEE
:103B700003C0822F8660D82E20E132E002C028E008
:103B800030E0F801D7FE0FC060817181828193819E
:103B90000C5F1F4FA5010E94521EC82ECA183D2C53
:103BA000E89437F867CF6081718190E080E00E5F24
:103BB0001F4FF0CF42FC02C0839478CF839483944C
:103BC00075CF842D867809F471CFF6CFB70180E2E6
:103BD00090E00E94221E83948214C0F3512C73CF74
:103BE000522C5818821408F46ECFF8CF842D8678A2
:103BF00009F47BCF8BE241FE80E247FC8DE2B70106
:103C000090E071CFB70180E390E00E94221E9A9469
:103C10006CCF8FEF9FEF99CFFC0105906150704002
:103C20000110D8F7809590958E0F9F1F0895FC0185
:103C30006150704001900110D8F7809590958E0FDB
:103C40009F1F08950F931F93CF93DF93182F092F72
:103C5000EB018B8181FD09C01FEF0FEF812F902FAA
:103C6000DF91CF911F910F91089582FF14C02E8193
:103C70003F818C819D81281739073CF4E881F981C7
:103C8000CF0101969983888310838E819F8101964D
:103C90009F838E83E3CFE885F985812F0995892B52
:103CA000A1F3DACFFA01AA27283051F1203181F1AE
:103CB000E8946F936E7F6E5F7F4F8F4F9F4FAF4F34
:103CC000B1E03ED0B4E03CD0670F781F891F9A1F47
:103CD000A11D680F791F8A1F911DA11D6A0F711DFB
:103CE000811D911DA11D20D009F468943F912AE007
:103CF000269F11243019305D3193DEF6CF010895EF
:103D0000462F4770405D4193B3E00FD0C9F7F6CF1F
:103D1000462F4F70405D4A3318F0495D31FD4052E7
:103D2000419302D0A9F7EACFB4E0A695979587957D
:103D300077956795BA95C9F700976105710508955C
:103D40009B01AC010A2E0694579547953795279508
:103D5000BA95C9F7620F731F841F951FA01D0895A0
:103D60002F923F924F925F926F927F928F929F928B
:103D7000AF92BF92CF92DF92EF92FF920F931F9379
:103D8000CF93DF93CDB7DEB7CA1BDB0B0FB6F8942A
:103D9000DEBF0FBECDBF09942A88398848885F846A
:103DA0006E847D848C849B84AA84B984C884DF80DB
:103DB000EE80FD800C811B81AA81B981CE0FD11DBF
:103DC0000FB6F894DEBF0FBECDBFED010895F89495
:023DD000FFCF23
:103DD200010101010A00000020400F0000004842DA
:103DE2000000803EFF000000009309A006E30BE202
:103DF2000B9B0B0D0A006E616E00696E66006F769A
:103E02006600204D696E69204B5300204D6F6E7322
:103E1200746572005761737365726D656E676500D4
:103E2200204C69746572004B532053746165726B48
:103E320065002070706D20002070706D202000558C
:103E42006D706F6C7A6569742031002053656B2E3A
:103E5200002053656B2E20002053636877656C6CDD
:103E62006500206D4100206D412000556D706F6C22
:103E72007A6569742032002070706D00206D672FA2
:103E82004C00576173736572206B616C74005374DC
:103E92006172743F00253031643A253032643A252C
:103EA200303264002D3A2D2D3A2D2D002070706D88
:103EB2002020202000206D4168202020202020206A
:103EC20000206D412020200020566F6C742020209D
:103ED20020202000206D412052002B004B532066F1
:063EE200657274696700BF
:00000001FF
