:100000000C9476060C949E060C949E060C949E0608
:100010000C949E060C949E060C949E060C94BD0DAA
:100020000C949E060C949E060C949E060C94190E3D
:100030000C949E060C949E060C949E060C949E06B0
:100040000C94730D0C949E060C949E060C949E06C4
:100050000C949E060C949E060C949E060C949E0690
:100060000C949E060C949E06AED580A83FD300400B
:100070008D142002A1C8DA12817FD9F1DB40A4A639
:10008000AF00030C0F30333C3FC0C3CCCFF0F3FCC8
:10009000FF00000A0F205F000000000000000000C9
:1000A000000000000000000000000000000000FE52
:1000B000FE00000000000000001919000000000010
:1000C000001E1E00001E1E000000000000000000B8
:1000D0000000000030FEFE3030FEFE300000031F46
:1000E0001F03031F1F03000070F8D8FE989800003C
:1000F00000000C18187F191F0F00001CB6A2F6CCC8
:1001000060602030000101000E1B111B0E0000007A
:1001100000DC7EE6C6860C808000070F1C18191FC5
:100120001E1F13000000001E1E0000000000000043
:1001300000000000000000000000E0FC1E020000C3
:1001400000000000073F78400000000000021EFC95
:10015000E000000000000040783F070000000000C1
:10016000487830FE307848000000000000010000B0
:1001700000000000808080F0F0808080000001019D
:10018000010F0F010101000000000000000000004D
:1001900000000000407C3C00000000000000000067
:1001A0000000000000000003030303030000000040
:1001B000000000000000000000000000001C1C0007
:1001C00000000000000000C0F03C0E0200002038DB
:1001D0001E07010000000000F0FC0EC6C60EFCF871
:1001E0000000030F1C18181C0F070000000C06FE6F
:1001F000FE00000000001818181F1F181818000033
:100200000C06060686C67C380000181C1E1B191832
:10021000181800000C06C6C6C6C6FC3800000C182C
:10022000181818190F0F000080C070180EFEFE007D
:10023000000003030303031F1F030000FE7E666626
:1002400066E6C68000000C181818181C0F0700007E
:10025000F0FCCE6666E6CC800000070F1C18181C68
:100260000F07000006060606E6FE3E0E0000001020
:100270001C0F03000000000038FCC6C6C6C6FC38D0
:1002800000000F0F181818180F0F000078FCCE860A
:1002900086CEFCF80000000C1919191C0F03000091
:1002A000000000E0E000000000000000001C1C0056
:1002B00000000000000000E0E0000000000000007E
:1002C000407C3C00000000008080C0406060203026
:1002D0000000010103020606040C0000606060607B
:1002E000606060600000060606060606060600005E
:1002F0003020606040C0808000000C0406060203CD
:10030000010100000C0686C6667E1C00000000008D
:100310001B1B0000000000E0F0389CCCCCDCF8F0A7
:1003200000071F38736766667727000000C0FC3E31
:100330003EFCC0000000181F0F03030F1F18000031
:10034000FEFEC6C6C6C6FC3C00001F1F18181818C3
:100350001F0F0000F0FC0C060606060C0000030F41
:100360000C181818180C0000FEFE0606060CFCF00F
:1003700000001F1F1818180C0F030000FEFEC6C651
:10038000C6C6C60600001F1F181818181818000047
:10039000FEFEC6C6C6C6C60600001F1F000000003F
:1003A00000000000F0FC0C068686868C0000030F1F
:1003B0000C1819191F0F0000FEFEC0C0C0C0FEFEC1
:1003C00000001F1F000000001F1F0000000606FEA7
:1003D000FE06060000000018181F1F181800000075
:1003E000000000060606FEFE00000C18181818187B
:1003F0000F0F0000FEFEE0F0FC0E060200001F1FC3
:100400000000030F1E180000FEFE000000000000A8
:1004100000001F1F1818181818180000FEFE3EF0E4
:10042000F03EFEFE00001F1F000101001F1F000024
:10043000FEFE1EF0C000FEFE00001F1F0000031E97
:100440001F1F0000F0FC0E06060EFCF00000030F5C
:100450001C18181C0F030000FEFEC6C6C6C67C7C16
:1004600000001F1F0000000000000000F0FC0E064E
:10047000060EFCF00000030F1C18183C6F0700006C
:10048000FEFEC6C6C6C6FC3C00001F1F00000103DE
:100490001F1E1000387CE6C6C6C68C0000000C1873
:1004A000181818190F0F0000060606FEFE060606AD
:1004B00000000000001F1F0000000000FEFE000002
:1004C0000000FEFE0000070F1C18181C0F0700009C
:1004D00006FEFC0000FCFE06000000001F1F1F1FA0
:1004E0000000001EFEE000F0F000E0FE1E001F1FF6
:1004F0001E01011E1F1F0000020E3EF8F83E0E02F4
:100500000000101C1F03031F1C1000020E3E78E0A9
:10051000E0783E0E02000000001F1F0000000000F7
:10052000060686C6F67E1E0E00001C1E1F1B18182F
:10053000181800000000FEFE02020000000000008B
:100540007F7F404000000000020E38E08000000085
:10055000000000000000030E38200000000202FE30
:10056000FE00000000000040407F7F0000000010FF
:10057000181C0E060E1C18100000000000000000E1
:1005800000000000000000000000000000404040AB
:10059000404040404040400000010306040000008D
:1005A000000000000000000000000000006030B00B
:1005B000B0B0F0E000000E1F1B19190D1F1F000046
:1005C000FEFE60303070E0C000001F1F0C18181CC9
:1005D0000F070000C0E07030303030600000070FBF
:1005E0001C181818180C0000C0E070303060FEFEB7
:1005F0000000070F1C18180C1F1F0000C0E0B0B04F
:10060000B0B0E0C00000070F1D191919190D000046
:100610003030FCFE36363600000000001F1F0000A0
:1006200000000000C0E070303060F0F000000337E0
:100630006E6C6C667F3F0000FEFE60303030F0E094
:1006400000001F1F000000001F1F0000003030F7D7
:10065000F700000000001818181F1F1818180000D5
:10066000003030F7F700000000006060607F3F005E
:1006700000000000FEFE80E07030100000001F1F30
:100680000103071E181000000606FEFE0000000011
:10069000000000000F1F181818000000F0F030F0E4
:1006A000E030F0E000001F1F001F1F001F1F0000B0
:1006B000F0F060303030F0E000001F1F000000005C
:1006C0001F1F0000C0E070303070E0C00000070F56
:1006D0001C18181C0F070000F0F060303070E0C0EC
:1006E00000007F7F060C0C0E07030000C0E0703096
:1006F0003060F0F0000003070E0C0C067F7F000056
:1007000000F0F060303030300000001F1F000000AB
:1007100000000000E0F0B0B0B0B0306000000C1994
:100720001919191B1F0E00003030FCFC303030004E
:10073000000000000F1F181818000000F0F0000063
:100740000000F0F000000F1F1818180C1F1F000009
:1007500030F0E00000E0F030000000010F1E1E0F3E
:1007600001000070F00000C0C00000F07000071F22
:100770001E03031E1F0700001030F0C0C0F0301031
:10078000000010181E07071E1810000010F0F0805F
:1007900000F0F03000000060637F1F0F01000000D8
:1007A00030303030B0F070300000181C1E1B1918AB
:1007B00018180000000000FCFE020200000000010A
:1007C000013E7E4040000000000000FEFE000000F0
:1007D00000000000007F7F0000000000000202FE19
:1007E000FC00000000000040407E3E0101000000CF
:1007F00080C0C0C0808080C00000010000000101F6
:100800000100000000060E20600000000000000053
:1008100000000000000000FCFC000000000D0D00C6
:1008200000001E1E001E1E00000000000020FCFC38
:10083000FCFC20010F0F0F0F013048FCFC88300634
:10084000081F1F0807183CA4781C0C0C0E07090F82
:100850000600B8FC44FCB8070F08070F0900001E8B
:100860001E000000000000000000E0F81C0602006E
:10087000030F1C30200002061CF8E00020301C0F83
:10088000038C50FCFC508C0100010100018080F0C1
:10089000F08080000007070000000000000000005A
:1008A00000243C1C008080808080800000000000CC
:1008B0000000000000000000000C0C00000000C060
:1008C000F03E0E383E07010000F8FC0404FCF80777
:1008D0000F08080F071018FCFC000008080F0F088D
:1008E00008181C04C4FC380C0E0B090808181C441A
:1008F00044FCB8060E08080F0780C060F8FC00032F
:1009000003020F0F027C7C2424E4C4060E08080FA7
:1009100007F0F84C44DC98070F08080F071C1CC4AC
:10092000F43C0C00000F0F000038FCC4C4FC380776
:100930000F08080F0778FC8484FCF8060E080C07E3
:100940000300003030000000000606000000000038
:100950003030000000121E0E0080C0603018080009
:100960000103060C084040404040400202020202DF
:100970000208183060C080080C06030100181CC46F
:10098000E43C1800000D0D0000F0F8ECF41CF80336
:10099000070D0B0A0BF8FC0C0CFCF80F0F01010FF4
:1009A0000FFCFC4444FC980F0F08080F07F8FC04E8
:1009B000041C18070F08080E06FCFC040CF8F00FC6
:1009C0000F080C0703FCFC444444040F0F080808FC
:1009D00008FCFC444444040F0F00000000F8FC0431
:1009E000849C98070F08080F07FCFC4040FCFC0F94
:1009F0000F00000F0F0404FCFC040408080F0F088C
:100A00000800000000FCFC060E080C0703FCFCF0CC
:100A1000980C040F0F01030E0CFCFC000000000FEB
:100A20000F08080808FCF86060F8FC0F0F00000FC2
:100A30000FFCFC7080FCFC0F0F00030F0FF8FC0490
:100A400004FCF8070F08080F07FCFC8484FC780FEF
:100A50000F00000000F8FC0404FCF8070F090A1F4F
:100A600037FCFC44C4FC380F0F00000F0F183CE4A7
:100A7000C41C18060E08090F060404FCFC0404003C
:100A8000000F0F0000FCFC0000FCFC070F08080F23
:100A900007FCFC0000FCFC01070E0E0701FCFC80BB
:100AA00080FCFC070F07070F070C3CF0F03C0C0C18
:100AB0000F03030F0C1C7CE0E07C1C00000F0F00F8
:100AC000000404C4F43C0C0C0F0B08080800FEFEE4
:100AD000020202003F3F2020200E3EF0C000000036
:100AE0000001073E3800020202FEFE002020203FE7
:100AF0003F0406030306040000000000000000009D
:100B00000000003030303030300002060C080000A9
:100B10000000000000406020A0E0C0060F09080FA0
:100B20000FFCFC2020E0C00F0F08080F07C0E020DA
:100B3000206040070F08080C04C0E02020FCFC07E0
:100B40000F08080F0FC0E02020E0C0070F09090DB3
:100B5000054040F8FC4C4800000F0F0000C0E020AA
:100B6000E0C060193F2A2B3910FCFC2020E0C00FA8
:100B70000F00000F0F0000ECEC000000000F0F0052
:100B80000000000000ECEC001030203F1FFCFC8057
:100B9000C060000F0F0103060C0000FCFC00000009
:100BA000000F0F0000E0E0C0E0E0C00F0F07070FEC
:100BB0000FE0E02020E0C00F0F00000F0FC0E0208A
:100BC00020E0C0070F08080F07E0E02020E0C03F4A
:100BD0003F08080F07C0E02020E0E0070F08083FAB
:100BE0003FE0E02020E0C00F0F0000000040E0A048
:100BF000206040040C090B0E042020FCFC20200087
:100C000000070F0808E0E00000E0E0070F08080F09
:100C10000FE0E00000E0E000030F0F0300E0E080E1
:100C200080E0E0070F07070F0760E08080E0600CBE
:100C30000E03030E0C60E08000E0E01031273E1F41
:100C400001202020A0E0600C0E0B0908080080FCA9
:100C50007E020200001F3F20200000FEFE00000078
:100C6000003F3F00000002027EFC800020203F1F6A
:100C7000001C060C0C180E000000000000FFFFFF17
:100C8000FFFFFF3F3F3F3F3F3F68001980400000AC
:100C9000000000240027002A000000000023002696
:100CA0000029000000000800020100000304070002
:100CB0000000000000000001020408102040800134
:100CC0000204081020010204081020000000002582
:100CD0000028002B0004040404040404040202029B
:100CE00002020203030303030302A21711241FBE1F
:100CF000CFEFD8E0DEBFCDBF11E0A0E0B1E0E4E788
:100D0000FAE302C005900D92A03FB107D9F722E0A7
:100D1000A0EFB1E001C01D92A836B207E1F716E0DE
:100D2000C6E7D6E004C02197FE010E941218C5371D
:100D3000D107C9F70E94920F0C94381D0C94000043
:100D4000833081F028F4813099F08230A9F0089541
:100D50008730A9F08830C9F08430B1F480918000E8
:100D60008F7D03C0809180008F77809380000895ED
:100D700084B58F7784BD089584B58F7DFBCF809136
:100D8000B0008F778093B00008958091B0008F7D80
:100D9000F9CFCF93DF93282F30E0F901ED55F34FD2
:100DA0008491F901E954F34FD491F901EB52F34FD7
:100DB000C491CC23A1F081110E94A006EC2FF0E099
:100DC000EE0FFF1FE756F34FA591B491EC91ED2381
:100DD00081E090E009F480E0DF91CF91089580E018
:100DE00090E0FACF1F93CF93DF93282F30E0F901E3
:100DF000ED55F34F8491F901E954F34FD491F90182
:100E0000EB52F34FC491CC23A9F0162F81110E940D
:100E1000A006EC2FF0E0EE0FFF1FE553F34FA59176
:100E2000B4918FB7F894EC91111108C0D095DE23DE
:100E3000DC938FBFDF91CF911F910895DE2BF8CF08
:100E4000CF93DF9390E0FC01E954F34F24918B5250
:100E5000934FFC0184918823D1F090E0880F991F73
:100E6000FC01E157F34FA591B491FC01E553F34F19
:100E7000C591D49161110EC09FB7F8948C91E22F67
:100E8000E0958E238C932881E223E8839FBFDF9136
:100E9000CF9108958FB7F894EC91E22BEC938FBF2C
:100EA000F6CFCF9380910E01853021F08F3F59F11D
:100EB000CF910895E9EEFCE0C491C7FDF9CF61E060
:100EC00085E00E942007CC2309F48BC0C23009F0D2
:100ED0009FC08091B100887F83608093B1008FE5CF
:100EE0008093B3008FEF9FEFDC01809347029093D4
:100EF0004802A0934902B0934A0280917000826038
:100F000080937000D5CF85E080930E01E9EEFCE080
:100F1000C491CF3F69F2C13021F150F0C23009F4E1
:100F20003EC0C7FDC5CF61E085E00E942007CECF5F
:100F300014BC15BC84B5826084BD85B5816085BD57
:100F4000EAEDFCE0E491F0E0EE0FFF1FE553F34F14
:100F500085919491ECEBFCE0E491E0934602C0E0D3
:100F6000AECF109280001092810080918100886045
:100F70008093810080918100816080938100EAEDFF
:100F8000FCE0E491F0E0EE0FFF1FE553F34F859195
:100F90009491ECEBFCE0E491E093450290CF109249
:100FA000B0001092B1008091B00082608093B000D8
:100FB0008091B10081608093B100EAEDFCE0E491A2
:100FC000F0E0EE0FFF1FE553F34F8591949190935E
:100FD000440280934302ECEBFCE0E491E093420294
:100FE0006ECF85B5887F836085BD8FE287BD8FEF2B
:100FF0009FEFDC0180934F0290935002A093510227
:10100000B093520280916E00826080936E0050CF48
:10101000C130E9F480918100887F816080938100F4
:1010200083E09CE090938900809388008FEF9FEF8E
:10103000DC0180934B0290934C02A0934D02B0933D
:101040004E0280916F00826080936F0031CFC2307A
:1010500021F0C1112DCF83E0C9CF83E041CF209192
:101060000D0190E4299F90011124822B80937C0034
:1010700080917A00806480937A0080917A0086FD66
:10108000FCCF809178009091790008953FB7F89453
:1010900080913E0290913F02A0914002B0914102A6
:1010A00026B5A89B05C02F3F19F00196A11DB11DC3
:1010B0003FBFBA2FA92F982F8827BC01CD01620FFF
:1010C000711D811D911D42E0660F771F881F991FBA
:1010D0004A95D1F708958F929F92AF92BF92CF9287
:1010E000DF92EF92FF924B015C010E9446086B0178
:1010F0007C010E9446086C197D098E099F09683E93
:10110000734081059105A8F321E0821A9108A10896
:10111000B10888EEC80E83E0D81EE11CF11C8114D2
:101120009104A104B10429F7FF90EF90DF90CF90D4
:10113000BF90AF909F908F90089590910E0189136A
:101140000BC0E9EEFCE0E4919FEF90930E01E130DB
:1011500049F028F0E23061F060E00C94F206109261
:101160006E00FACF90916F009D7F90936F00F4CF47
:10117000909170009D7F9093700091E09093B000EB
:101180009091B100987F94609093B1001092B30059
:10119000E3CFAF92BF92CF92DF92EF92FF920F9385
:1011A0001F93CF93DF936C017B018B01040F151FFD
:1011B000EB015E01AE18BF08C017D10759F0699165
:1011C000D601ED91FC910190F081E02DC6010995C9
:1011D000892B79F7C501DF91CF911F910F91FF9076
:1011E000EF90DF90CF90BF90AF900895CF93DF93B3
:1011F000EC018D85882329F081508D87DF91CF9177
:1012000008959C818E819817C8F788896827E8819E
:10121000F9810084F185E02D42E0CE0109958C81B1
:101220008F5F8C83EBCFDC01ED91FC910084F18525
:10123000E02D40E009940F931F93CF938C01FC01A4
:101240006483C085C60F6C2F6F700E9413096C2FCA
:1012500062956F706061C801CF911F910F910C94DE
:101260001309FC012781269526952695621738F4E7
:1012700065832385620F6770606B0C941309089572
:101280001F93CF93DF93EC01142F8E81681718F40E
:10129000CE010E941B09612FCE01DF91CF911F91DA
:1012A0000C943109CF92DF92EF92FF920F931F932C
:1012B000CF93DF93EC01F62EC42ED22E1D868F81A4
:1012C000869586958695081710F00FEF080F1D2D4F
:1012D000011780F0412F6F2DCE010E944009EF2CA5
:1012E000CE1430F06889CE010E94F608E394F8CF5E
:1012F0001F5FEECF4D2D6F2DCE01DF91CF911F914E
:101300000F91FF90EF90DF90CF900C9440092F92B7
:101310003F924F925F926F927F928F929F92AF9285
:10132000BF92CF92DF92EF92FF920F931F93CF93D2
:10133000DF9300D000D000D01F92CDB7DEB79F83DF
:101340008E83DC011E968D919C91009709F47EC1DD
:10135000FC013296549031962491E22EF12CB7E0A4
:10136000EB0EF11C43E0F594E7944A95E1F7E9822E
:1013700031963491319644916D3031F5EE81FF8193
:10138000868181111BC081E090E027960FB6F8940A
:10139000DEBF0FBECDBFDF91CF911F910F91FF90A8
:1013A000EF90DF90CF90BF90AF909F908F907F9005
:1013B0006F905F904F903F902F90089560E08E81E6
:1013C0009F810E941B09DFCF6A3009F067C0AE81A0
:1013D000BF8116968C911697882321F060E0CD018D
:1013E0000E941B09EE81FF8101890E9DE02C1124D2
:1013F00065816E0D8485882349F027812695269581
:1014000026958E2D821B860F18162CF08E819F81BB
:101410000E943109B8CFAE81BF811B969C911B976A
:10142000890F87701B968C931B972E1915962C93FA
:1014300015971E96ED91FC91309771F13396E491DA
:10144000F0E0379633E0F595E7953A95E1F70E9F92
:10145000002D1124EFEFE20F0E0FEE81FF81468188
:1014600041506481CF010E945209AE81BF811C9618
:101470008C911C97813009F086CF1B966C911B973D
:10148000660F660F660F6F731A966C931A976064F7
:10149000CD010E94130977CF00E0DCCF631760F124
:1014A000A32FA40FBB27BB1F6A171B062CF5631BBA
:1014B000212C8C010A5F1F4FEE81FF8151853189FC
:1014C000539F302D11243D83211014C0FC01349111
:1014D0000196FC018491932F0297A0F45E9C9001E9
:1014E0005F9C300D1124629FC001639F900D1124F9
:1014F000080F191F612C28C0603209F0A7C02224F0
:101500002394D7CF277088E0682E621A211101C07A
:10151000612CF80120E090E080E0621731F0349116
:10152000830F911D2F5F3196F8CFF801E60FF11D63
:101530005490E89EF001E99EF00DF89EF00D112404
:10154000E40FF11D0E0F1F1FAE81BF811496BC91D9
:10155000BA83EE81FF81F581FB83AE81BF811D9649
:10156000BC91BC83852C912CAA24A394B12C312C42
:10157000E9813E1608F068C0412CAE81BF815196CA
:101580008C915197481608F058C0EC811D96EC9349
:10159000311002C0442051F0AE81BF8115964C91AC
:1015A00015974F5F6A81CD010E944009D12CC12C53
:1015B000C514B0F5712C211004C0F801EC0DFD1D0F
:1015C0007490662061F0EA14FB0449F4E72DF0E022
:1015D000062C02C0F595E7950A94E2F77E2EEE817F
:1015E000FF818189823079F44420B1F072948FE0D8
:1015F0007822E72DF0E0EF57FF4F7490672D8E8132
:101600009F810E94F608672D8E819F810E94F608B7
:101610003FEFC31AD30ACCCFF72DFF707F2EE9CF4F
:10162000D12C8D81D81639F060E08E819F810E9487
:10163000F608D394F6CF4394A0CF3394AFEFAA1A11
:10164000BA0A080D191D94CF6B81E0CE90E080E0BE
:101650009CCE0F93CF93DF93EC011B861A8660E438
:101660000E9413090F8106950695069501504E813B
:10167000415020E060E0CE010E945209DF91CF91FD
:101680000F91089584E98093BC0085E69091BC0099
:1016900094FF03C08150D1F7089581E008950E941E
:1016A000510762E370E080E090E00E946B0885E003
:1016B0000C949D08CF9386E00E94C906C1E0019773
:1016C00009F0C0E087E00E94C906019709F4CE5FE7
:1016D00088E00E94C906019709F4CC5F8C2FCF9156
:1016E0000895FC016093BC002FEF3FEF8091BC0098
:1016F00087FF06C09091B900987F908381E008959C
:101700002150310999F780E00895CF93DF93EC01E0
:101710006093BB0064E80E94710B882329F081E08C
:101720009881983209F080E0DF91CF910895DF929F
:10173000EF92FF920F931F93CF93DF93EC01D62E7E
:10174000F42E8C89882329F0411103C00E94420B9A
:101750001C8A8E010E5E1F4F8C89811119C0EB8887
:1017600064EAC8010E94710B882361F08A8988307D
:1017700011F0803139F4EE0CE092BB0064E8C8014E
:101780000E94710B60E0F11060E4C8010E94850BBB
:101790006D2DC8010E94850B82E0F8120BC08C8968
:1017A0008F5F8C8BDF91CF911F910F91FF90EF9006
:1017B000DF9008950E94420B1C8AF4CF089590E0B8
:1017C00080E00895FC0101900020E9F73197AF0116
:1017D000481B590BBC0183E592E00C94C9088F9219
:1017E0009F92AF92BF920F931F93CF93DF93CDB78A
:1017F000DEB7A1970FB6F894DEBF0FBECDBF19A21A
:10180000423008F44AE08E010F5D1F4F842E912C68
:10181000B12CA12CA50194010E94F017E62FB9016B
:10182000CA01EA30F4F4E05DD801EE938D01232B78
:10183000242B252B79F790E080E0109719F0CD014B
:101840000E94E20BA1960FB6F894DEBF0FBECDBF8B
:10185000DF91CF911F910F91BF90AF909F908F908C
:101860000895E95CE1CF0C94E20BCF93DF930E94E3
:10187000E20BEC018DE191E00E94E20B8C0F9D1FC9
:10188000DF91CF9108954F925F926F927F928F92E6
:101890009F92AF92BF92CF92DF92EF92FF926B0135
:1018A0007C01AC019B010E94561A882381F080E2E2
:1018B00091E0FF90EF90DF90CF90BF90AF909F901E
:1018C0008F907F906F905F904F900C94E20B460149
:1018D0005701E894B7F82FEF3FEF4FE75FE7C501F7
:1018E000B4010E94561A81110DC02FEF3FEF4FE750
:1018F0005FE7C501B4010E94851818161CF484E244
:1019000091E0D7CF2FEF3FEF4FE75FE4C701B6017C
:101910000E94E41918161CF488E291E0CACF2FEF58
:101920003FEF4FE75FECC701B6010E94851887FDC6
:10193000F3CF20E030E0A901C701B6010E9485186D
:10194000B12CA12C87FF0AC06DE283E592E00E94D2
:1019500087095C01F7FAF094F7F8F0942AE037ED84
:1019600043EA5BE3C701B6010E9419182B013C0151
:101970000E9403196B017C010E9432199B01AC018A
:10198000C301B2010E9418182B013C014AE0C701B3
:10199000B6010E94EF0B7C01EA0CFB1C6EE283E5B2
:1019A00092E00E948709E80EF91E20E030E040E254
:1019B00051E4C301B2010E94E9192B013C010E94CC
:1019C00003194B01B12CA12C4AE0C501B4010E94BE
:1019D000EF0BE80EF91EC501B4010E9432199B01FC
:1019E000AC01C301B2010E94181820E030E040E2CF
:1019F00051E40E94E9190E94031990E080E04AE056
:101A00000E94EF0B8E0D9F1DFF90EF90DF90CF9007
:101A1000BF90AF909F908F907F906F905F904F900E
:101A20000895CF92DF92EF92FF92CF93DF936C01F4
:101A3000990FEE08FF08F7FE19C06DE283E592E00A
:101A40000E948709EC0166277727CB016C197D0975
:101A50008E099F094AE00E94EF0B8C0F9D1FDF91BA
:101A6000CF91FF90EF90DF90CF9008954AE0C701AB
:101A7000B601DF91CF91FF90EF90DF90CF900C9463
:101A8000EF0B9F92AF92BF92CF92DF92EF92FF92B5
:101A90000F931F93CF93DF935C017B018B01D0E009
:101AA000C0E0F80191908F016501CC0EDD1EC601EA
:101AB0000E94B217981621F0692DC6010E94BA172C
:101AC0002196C430D10569F7C701DF91CF911F91ED
:101AD0000F91FF90EF90DF90CF90BF90AF909F90CD
:101AE00008950E945B1A1F920F920FB60F92112455
:101AF0002F933F938F939F93AF93BF9380913A021D
:101B000090913B02A0913C02B0913D02309139028C
:101B100023E0230F2D3758F50196A11DB11D209309
:101B2000390280933A0290933B02A0933C02B09317
:101B30003D0280913E0290913F02A0914002B091FF
:101B400041020196A11DB11D80933E0290933F0278
:101B5000A0934002B0934102BF91AF919F918F91AA
:101B60003F912F910F900FBE0F901F90189526E870
:101B7000230F0296A11DB11DD2CF1F920F920FB657
:101B80000F9211242F933F934F935F936F937F9303
:101B90008F939F93AF93BF93EF93FF9380914702EF
:101BA00090914802A0914902B0914A02892B8A2B58
:101BB0008B2BD1F190914202E0914302F0914402CB
:101BC0008081892780838091470290914802A0916B
:101BD0004902B0914A02181619061A061B069CF40F
:101BE0008091470290914802A0914902B0914A0227
:101BF0000197A109B1098093470290934802A093ED
:101C00004902B0934A02FF91EF91BF91AF919F912A
:101C10008F917F916F915F914F913F912F910F9095
:101C20000FBE0F901F90189580910E010E949D0885
:101C3000EACF1F920F920FB60F9211244F925F922C
:101C40006F927F928F929F92AF92BF92CF92DF92CC
:101C5000EF92FF922F933F934F935F936F937F93F6
:101C60008F939F93AF93BF93CF93DF93EF93FF93A4
:101C700080E00E942F08EC019093F5018093F4011D
:101C800081E00E942F087C019093F7018093F60178
:101C900020E030E040E251E46091F0017091F10108
:101CA0008091F2019091F3010E94E9194B015C01CE
:101CB000B70190E080E00E9432199B01AC01C501A0
:101CC000B4010E94191820E030E040E351E40E9482
:101CD0008A186B017C01C092F001D092F101E09270
:101CE000F201F092F301BE0190E080E00E9432190F
:101CF00028E638EE4FE15BE30E94E9196093FC01AE
:101D00007093FD018093FE019093FF0129E23CE571
:101D10004FE150E4C701B6010E94E91920E030E02C
:101D20004CE352E40E948A186B017C01C0920402C9
:101D3000D0920502E0920602F092070220910A0278
:101D400030910B0240910C0250910D020E94191823
:101D500060930A0270930B0280930C0290930D0221
:101D600020E030E04AE754E40E948A182B013C014D
:101D700024EA3CE842E95AE30E94E9194B015C017C
:101D800080922B0290922C02A0922D02B0922E02F1
:101D900020E030E0A901C701B6010E948518882320
:101DA00051F1A501940160912F0270913002809150
:101DB0003102909132020E94181824EA3CE842E96C
:101DC0005AE30E948A1820E030E04AE754E40E9477
:101DD000E919A70196010E948A180E94FC18072E93
:101DE000000C880B990B60930002709301028093A2
:101DF00002029093030222EF32ED4DE85EE3C3014D
:101E0000B2010E94E919609310027093110280934D
:101E100012029093130220E030E04AE754E460910C
:101E2000090170910A0180910B0190910C010E94AF
:101E3000E91920E034E244E759E40E948A189B0142
:101E4000AC01C501B4010E948A186093050170932A
:101E500006018093070190930801209103013091BE
:101E60000401C0910802D0910902CE016AE070E03D
:101E70000E94C817892B49F4209709F44FC080911C
:101E8000020191E08927809302012115310579F043
:101E9000CE01B9010E94C817892B49F46091000155
:101EA00081E06827609300018AE00E94F206809139
:101EB000270290912802A0912902B0912A0201964E
:101EC000A11DB11D8093270290932802A09329029F
:101ED000B0932A022196D0930902C0930802FF9181
:101EE000EF91DF91CF91BF91AF919F918F917F91B2
:101EF0006F915F914F913F912F91FF90EF90DF9005
:101F0000CF90BF90AF909F908F907F906F905F9099
:101F10004F900F900FBE0F901F901895232B09F034
:101F2000BDCFC5CFCF93DF9300D000D01F92CDB7E8
:101F3000DEB7789484B5826084BD84B5816084BD49
:101F400085B5826085BD85B5816085BD80916E0057
:101F5000816080936E001092810080918100826088
:101F600080938100809181008160809381008091C5
:101F700080008160809380008091B10084608093B4
:101F8000B1008091B00081608093B00080917A00B0
:101F9000846080937A0080917A00826080937A00D6
:101FA00080917A00816080937A0080917A008068C5
:101FB00080937A001092C100F894109280001092E1
:101FC0008100109285001092840083E294EF909338
:101FD00089008093880080918100886080938100CF
:101FE0008091810084608093810080916F00826085
:101FF00080936F00789480918100887F8093810026
:1020000060E086E00E94200760E086E00E94F20621
:1020100060E087E00E94200760E087E00E94F2060F
:1020200060E088E00E94200760E088E00E94F206FD
:1020300061E089E00E94200761E089E00E94F206E9
:1020400061E085E00E94200761E08AE00E942007AD
:1020500060E08AE00E94F206109267028CE38093AF
:1020600066021092B90084E48093BC008CE08093F7
:10207000B8001092570210925802E9E8FCE08591EE
:102080009491082FEBE8FCE01491ECE8FCE0E4917B
:10209000E0935902EDE8FCE0E491E0935A02EEE8A7
:1020A000FCE0E491E0935B0289839A838981801B41
:1020B000811770F4E981FA81649183E592E00E94CE
:1020C000130929813A812F5F3F4F3A832983EECF4D
:1020D00083E592E00E94290B61E883E592E00E948B
:1020E000130964E683E592E00E94130983E592E018
:1020F0000E94290B82E080936402E3E0F8E0F09311
:102100006202E09361028491E4E0F8E0E491F82F48
:10211000319709F0D0C310925C028CE291E00E94EA
:10212000350C85E391E00E94350C91E090936402B8
:10213000E1E9F0E0F0936202E09361028491E2E968
:10214000F0E0E491F82F319709F0B9C310925C02E6
:1021500060ED77E080E090E00E946B0810920D0146
:1021600090E080E00E94B2178130E1F581E090E0DC
:102170000E94B2178093090182E090E00E94B2179A
:1021800080930A0183E090E00E94B21780930B01D4
:1021900084E090E00E94B21780930C0185E090E00B
:1021A0000E94B2178093050186E090E00E94B2176A
:1021B0008093060187E090E00E94B21780930701A8
:1021C00088E090E00E94B2178093080189E090E0D7
:1021D0000E94B217809303018AE090E00E94B21738
:1021E000809304014CE3C42ED12CE12CF12C0FE997
:1021F00011E054E1252E52E0352E80900901909097
:102200000A01A0900B01B0900C0183E592E00E94BE
:10221000290B40E063E083E592E00E9440098EE3F1
:1022200091E00E94330C44E068E083E592E00E9474
:102230004009C501B4010E94430C8AE491E00E9468
:10224000330C0E945A0B813009F042C08090090182
:1022500090900A01A0900B01B0900C0120E030E0BA
:1022600040EA50E4C501B4010E94851887FF1EC0F2
:1022700021E73DE34AE45FE3C501B4010E9485180C
:102280002AE037ED43E25CE3181624F42DEC3CEC35
:102290004CE45DE3C501B4010E9419186093090183
:1022A00070930A0180930B0190930C0144E068E065
:1022B00083E592E00E9440096091090170910A0152
:1022C00080910B0190910C010E94430C0E944F0BD6
:1022D0000E945A0B823009F042C080900901909010
:1022E0000A01A0900B01B0900C012DEC3CEC4CE4E9
:1022F0005DE3C501B4010E94E4191816F4F42DEC55
:102300003CEC4CE45FE3C501B4010E9485182AE06F
:1023100037ED43E25CE387FD04C02DEC3CEC4CE47C
:102320005DE3C501B4010E94181860930901709320
:102330000A0180930B0190930C0144E068E083E56F
:1023400092E00E9440096091090170910A01809118
:102350000B0190910C010E94430C0E944F0B8FB710
:10236000F89480903A0290903B02A0903C02B0908A
:102370003D028FBF8091350290913602A0913702C5
:10238000B0913802A5019401281B390B4A0B5B0B55
:10239000DA01C90188389341A105B10508F492C258
:1023A00062E370E080E090E00E946B080E945A0BAC
:1023B000811108C08092350290923602A0923702B5
:1023C000B09238020E945A0B843009F03ACF0E9432
:1023D0004F0B8090050190900601A0900701B090EE
:1023E000080183E592E00E94290B40E069E083E563
:1023F00092E00E94400981E591E00E94330C44E0A4
:102400006DE183E592E00E944009C501B4010E949C
:10241000FC18CB010E94110D8CE591E00E94330C59
:102420000E945A0B813009F049C0809005019090BC
:102430000601A0900701B090080120E030E04AE7D3
:1024400054E4C501B4010E94851887FF1EC020E036
:1024500030E040EA51E4C501B4010E94851820E053
:1024600030E040E85FE387FD04C020E030E040EA70
:1024700050E4C501B4010E941918609305017093DE
:102480000601809307019093080144E06DE183E524
:1024900092E00E94400960910501709106018091CF
:1024A0000701909108010E94FC18CB010E94110DB8
:1024B00082E691E00E94350C0E944F0B0E945A0B5D
:1024C000823009F049C08090050190900601A090EB
:1024D0000701B090080120E030E040E85FE3C5016B
:1024E000B4010E94E4191816F4F420E030E040EA48
:1024F00051E4C501B4010E94851820E030E040E8B5
:102500005FE387FD04C020E030E040EA50E4C5010D
:10251000B4010E941818609305017093060180931E
:1025200007019093080144E06DE183E592E00E9489
:102530004009609105017091060180910701909119
:1025400008010E94FC18CB010E94110D82E691E067
:102550000E94350C0E944F0B8FB7F89480903A027E
:1025600090903B02A0903C02B0903D028FBF8091C2
:10257000350290913602A0913702B0913802A50140
:102580009401281B390B4A0B5B0BDA01C90188380F
:102590009341A105B10508F49CC162E370E080E0BD
:1025A00090E00E946B080E945A0B811108C0809233
:1025B000350290923602A0923702B09238020E9401
:1025C0005A0B843009F02CCF0E944F0B409103012D
:1025D000509104015A83498383E592E00E94290BBC
:1025E00040E06EE083E592E00E94400989E691E0D8
:1025F0000E94330C44E06AE183E592E00E944009C6
:10260000E981FA81BF0190E080E04AE00E94EF0B8F
:1026100083E791E00E94330C0E945A0B813011F540
:1026200080910301909104018835F2E09F07D0F476
:102630000196909304018093030144E06AE183E5ED
:1026400092E00E944009609103017091040190E0C2
:1026500080E04AE00E94EF0B89E791E00E94330C92
:102660000E944F0B0E945A0B823001F580910301AA
:10267000909104010097D1F0019790930401809309
:10268000030144E06AE183E592E00E944009609121
:1026900003017091040190E080E04AE00E94EF0B9A
:1026A00089E791E00E94330C0E944F0B8FB7F8949A
:1026B00080903A0290903B02A0903C02B0903D0284
:1026C0008FBF8091350290913602A0913702B09170
:1026D0003802A5019401281B390B4A0B5B0BDA0168
:1026E000C90188389341A105B10508F4F9C062E336
:1026F00070E080E090E00E946B080E945A0B81110C
:1027000008C08092350290923602A0923702B092B1
:1027100038020E945A0B843009F07ECF0E944F0B82
:1027200061E090E080E00E94BA1769E071E081E02A
:1027300090E00E94410D65E071E085E090E00E942C
:10274000410D40910301498389E090E00E94B21756
:102750005981851729F0652F89E090E00E94BA170A
:102760008091040189838AE090E00E94B2179981E8
:10277000981729F0692F8AE090E00E94BA1783E544
:1027800092E00E94290B68EE73E080E090E00E94E6
:102790006B0835E0832E912C40E060E083E592E009
:1027A0000E94400960910501709106018091070126
:1027B000909108010E94FC18CB010E94110D80E845
:1027C00091E00E94330C42E060E083E592E00E94D9
:1027D00040096091090170910A0180910B0190916B
:1027E0000C010E94430C8AE491E00E94330C44E007
:1027F00060E083E592E00E944009609105017091DC
:10280000060180910701909108010E94FC18CB01FC
:10281000B4010E94DC17CB010E94110D85E891E004
:102820000E94330C46E060E083E592E00E9440099C
:102830006091050170910601809107019091080156
:102840000E94FC18CB01B4010E94DC17CB01880F59
:10285000991F0E94110D8FE891E00E94330C0E9495
:102860005A0BE82FF0E0FA83E983F0933402E09307
:1028700033021092090210920802A0900802B09050
:102880000902F4E6AF16B10490F50E945A0B8430A9
:1028900071F10E945A0B813051F164E170E080E0E7
:1028A00090E00E946B082FEFA21AB20AB0920902C0
:1028B000A0920802E2CF81E080935C022ECC90933C
:1028C0005C0246CC6CE271E080E090E00E946B0814
:1028D00079CD6CE271E080E090E00E946B086FCEF1
:1028E0006CE271E080E090E00E946B0812CF4981B9
:1028F0005A814430510539F04230510521F04130C0
:10290000510509F049CF0E944F0B89819A8184308B
:10291000910519F0029709F070CC68EE73E080E041
:1029200090E00E946B0883E592E00E94290B42E050
:1029300060E083E592E00E94400982E080936402B7
:1029400088E991E00E94330C81E0809364020E9448
:102950005A0B90E090933402809333020497B9F7B6
:102960000E944F0B83E592E00E94290B20E030E0AB
:102970004AE754E46091090170910A0180910B01CA
:1029800090910C010E94E91920E034E244E759E4F7
:102990000E948A182091050130910601409107019B
:1029A000509108010E94E91960932F027093300240
:1029B000809331029093320260E089E00E94F20637
:1029C0008091810084608093810064E670E080E003
:1029D00090E00E946B0880910101882309F459C29C
:1029E000909102019D8340E062E183E592E00E94C4
:1029F0004009ED81EE2309F4B2C180902702909046
:102A00002802A0902902B0902A02C501B401A701B2
:102A100096010E94F0172B013C0160932402C5012E
:102A2000B4016419750986099709A70196010E94E6
:102A3000F01749015A01CA01B901A70196010E9484
:102A4000F01769837A838B839C83F981F093250245
:102A5000C501B40129813A814B815C81621B730BF2
:102A6000840B950BA70196010E94F0172093260274
:102A70005F924F923A813F9349814F931F922F93D8
:102A80001F930F933F922F920E94601A84E192E06D
:102A90000E94330C0FB6F894DEBF0FBECDBF42E0EC
:102AA00062E183E592E00E9440099D81992309F447
:102AB00097C1609105017091060180910701909185
:102AC00008010E94430C86EB91E00E94330C44E025
:102AD00062E183E592E00E944009ED81EE2309F472
:102AE000AEC160911002709111028091120290911A
:102AF00013020E94430C8FEB91E00E94330C46E0DE
:102B000062E183E592E00E944009609104027091C5
:102B1000050280910602909107020E94430C8BEC03
:102B200091E00E94330C8090080290900902B12C31
:102B3000A12C8091F8019091F901A091FA01B09136
:102B4000FB01A5019401281B390B4A0B5B0BDA0131
:102B5000C90180369A4EA105B10508F49FC11092B3
:102B600001010E945A0B882341F08092F801909253
:102B7000F901A092FA01B092FB0180910101882332
:102B800079F08091000140E069E6882309F48AC168
:102B900083E592E00E94400984EB91E00E94330CAF
:102BA0000E945A0B873011F40E944F0B20912F0284
:102BB00030913002409131025091320260912B02EB
:102BC00070912C0280912D0290912E020E94851806
:102BD00018160CF0FACE61E089E00E94F2068091AE
:102BE0008100887F8093810060E08AE00E94F20685
:102BF00083E592E00E94290B40E062E183E592E0E8
:102C00000E9440098090270290902802A0902902FB
:102C1000B0902A02C501B401A70196010E94F017E5
:102C20002B013C0160932402C501B40164197509AC
:102C300086099709A70196010E94F01749015A01D8
:102C4000CA01B901A70196010E94F01769837A832E
:102C50008B839C83598150932502C501B40129813E
:102C60003A814B815C81621B730B840B950BA7012E
:102C700096010E94F017209326025F924F923A81AC
:102C80003F9349814F931F922F931F930F933F922E
:102C90002F920E94601A84E192E00E94330C42E07D
:102CA00062E183E592E00E94400960910501709124
:102CB000060180910701909108010E94430C86EB68
:102CC00091E00E94330C44E062E183E592E00E94CF
:102CD000400960911002709111028091120290914E
:102CE00013020E94430C8FEB91E00E94330C46E0EC
:102CF00062E183E592E00E94400986EE91E00E9445
:102D0000330C81E090E090930F0280930E020FB697
:102D1000F894DEBF0FBECDBFE0910E02F0910F021E
:102D2000FA83E9833B970CF0C4C00E94510768EE18
:102D300073E080E090E00E946B0885E00E949D08AF
:102D400060E971E080E090E00E946B0829813A819F
:102D50002F5F3F4F30930F0220930E02DDCF20E014
:102D600030E040E85FE360910402709105028091D9
:102D70000602909107020E94E419181664F58090EB
:102D8000000290900102A0900202B0900302C501DF
:102D9000B401A70196010E94F0172B013C0160933A
:102DA0002402C501B4016419750986099709A701B0
:102DB00096010E94F01749015A01CA01B901A70101
:102DC00096010E94F01769837A838B839C83998193
:102DD000909325023DCE8EEA91E00E94330C5FCEA7
:102DE00020912B0230912C0240912D0250912E0205
:102DF00060912F02709130028091310290913202E5
:102E00000E9418184B015C0120E030E04AE754E4CE
:102E10006091090170910A0180910B0190910C0160
:102E20000E94E91920E034E244E759E40E948A183C
:102E30009B01AC01C501B4010E948A1842CE2FE16A
:102E400035E847E852E46091FC017091FD01809102
:102E5000FE019091FF010E94E9190E94FC18CB012C
:102E60000E94110D82ED91E00E94330C46E062E178
:102E700083E592E00E94400960910402709105028E
:102E800080910602909107020E94430C8EED91E022
:102E900048CE83E592E00E94290B45CE41E0409365
:102EA00001016BCE83E592E00E94400984EE91E03F
:102EB00075CE0E945A0B282F30E0309334022093B5
:102EC00033022430310519F08150823090F710928E
:102ED0000A0210920B0210920C0210920D02109234
:102EE00009021092080210922702109228021092F2
:102EF000290210922A0210922602109225021092A4
:102F0000240210922F02109230021092310210927D
:102F1000320210922B0210922C0210922D0210926B
:102F20002E0281E08093010168EE73E080E090E082
:102F30000E946B0840E050E0452B09F45EC90E94F6
:102F400000005BC9E3E5F2E0138212821486158665
:102F500017861686108A81E0818B83E191E0918348
:102F600080830895F999FECF92BD81BDF89A992783
:102F700080B50895262FF999FECF1FBA92BD81BD65
:102F800020BD0FB6F894FA9AF99A0FBE01960895EB
:102F9000AA1BBB1B51E107C0AA1FBB1FA617B7077F
:102FA00010F0A61BB70B881F991F5A95A9F780959B
:102FB0009095BC01CD01089597FB072E16F400945F
:102FC00007D077FD09D00E94C81707FC05D03EF452
:102FD000909581959F4F0895709561957F4F0895C5
:102FE000A1E21A2EAA1BBB1BFD010DC0AA1FBB1F0D
:102FF000EE1FFF1FA217B307E407F50720F0A21B7F
:10300000B30BE40BF50B661F771F881F991F1A94EB
:1030100069F760957095809590959B01AC01BD0115
:10302000CF010895EE0FFF1F0590F491E02D099454
:103030005058BB27AA270E9430180C94AA190E9446
:103040009C1938F00E94A31920F039F49F3F19F41D
:1030500026F40C9499190EF4E095E7FB0C9493195F
:10306000E92F0E94BB1958F3BA1762077307840748
:10307000950720F079F4A6F50C94DD190EF4E0958F
:103080000B2EBA2FA02D0B01B90190010C01CA0122
:10309000A0011124FF27591B99F0593F50F4503ECD
:1030A00068F11A16F040A22F232F342F4427585FBF
:1030B000F3CF469537952795A795F0405395C9F7D7
:1030C0007EF41F16BA0B620B730B840BBAF091508F
:1030D000A1F0FF0FBB1F661F771F881FC2F70EC02E
:1030E000BA0F621F731F841F48F487957795679501
:1030F000B795F7959E3F08F0B0CF9395880F08F0ED
:103100009927EE0F9795879508950E946F1908F4F7
:1031100081E008950E949E180C94AA190E94A31998
:1031200058F00E949C1940F029F45F3F29F00C945C
:10313000931951110C94DE190C9499190E94BB1922
:1031400068F39923B1F3552391F3951B550BBB27D6
:10315000AA2762177307840738F09F5F5F4F220F1B
:10316000331F441FAA1FA9F335D00E2E3AF0E0E812
:1031700032D091505040E695001CCAF72BD0FE2F5C
:1031800029D0660F771F881FBB1F261737074807F0
:10319000AB07B0E809F0BB0B802DBF01FF279358A8
:1031A0005F4F3AF09E3F510578F00C9493190C94C0
:1031B000DE195F3FE4F3983ED4F3869577956795E3
:1031C000B795F7959F5FC9F7880F911D96958795DD
:1031D00097F90895E1E0660F771F881FBB1F6217FC
:1031E00073078407BA0720F0621B730B840BBA0BBA
:1031F000EE1F88F7E09508950E9403196894B111B5
:103200000C94DE1908950E94C31988F09F5798F016
:10321000B92F9927B751B0F0E1F0660F771F881FDB
:10322000991F1AF0BA95C9F714C0B13091F00E94F5
:10323000DD19B1E008950C94DD19672F782F8827E8
:10324000B85F39F0B93FCCF3869577956795B3951C
:10325000D9F73EF490958095709561957F4F8F4F8B
:103260009F4F0895E89409C097FB3EF49095809590
:10327000709561957F4F8F4F9F4F9923A9F0F92F3C
:1032800096E9BB279395F695879577956795B795BA
:10329000F111F8CFFAF4BB0F11F460FF1BC06F5FA0
:1032A0007F4F8F4F9F4F16C0882311F096E911C0B2
:1032B000772321F09EE8872F762F05C0662371F0D3
:1032C00096E8862F70E060E02AF09A95660F771FE7
:1032D000881FDAF7880F9695879597F90895990FC3
:1032E0000008550FAA0BE0E8FEEF16161706E807D0
:1032F000F907C0F012161306E407F50798F0621BF1
:10330000730B840B950B39F40A2661F0232B242BC5
:10331000252B21F408950A2609F4A140A6958FEFE4
:10332000811D811D089597F99F6780E870E060E036
:1033300008959FEF80EC089500240A94161617064E
:1033400018060906089500240A9412161306140696
:1033500005060895092E0394000C11F4882352F0F9
:10336000BB0F40F4BF2B11F460FF04C06F5F7F4FB1
:103370008F4F9F4F089557FD9058440F551F59F098
:103380005F3F71F04795880F97FB991F61F09F3F52
:1033900079F087950895121613061406551FF2CF7B
:1033A0004695F1DF08C0161617061806991FF1CFCB
:1033B00086957105610508940895E894BB276627F2
:1033C0007727CB0197F908950E946F1908F48FEFC2
:1033D00008950E94FC190C94AA190E949C1938F0B7
:1033E0000E94A31920F0952311F00C9493190C94CA
:1033F000991911240C94DE190E94BB1970F3959F42
:10340000C1F3950F50E0551F629FF001729FBB27DB
:10341000F00DB11D639FAA27F00DB11DAA1F649F77
:103420006627B00DA11D661F829F2227B00DA11D2A
:10343000621F739FB00DA11D621F839FA00D611DB0
:10344000221F749F3327A00D611D231F849F600DD1
:10345000211D822F762F6A2F11249F5750409AF0FA
:10346000F1F088234AF0EE0FFF1FBB1F661F771F86
:10347000881F91505040A9F79E3F510580F00C9451
:1034800093190C94DE195F3FE4F3983ED4F38695CC
:1034900077956795B795F795E7959F5FC1F7FE2BF1
:1034A000880F911D9695879597F908950E946F1939
:1034B000880B990B089581E090E0F8940C94381DE6
:1034C000AEE0B0E0E6E6FAE10C940F1D0D891E892E
:1034D00086E08C831A8309838FEF9FE79E838D8319
:1034E000AE01475E5F4F6F89788DCE0101960E94D5
:1034F000831A2F813885020F131FF80110822E9630
:10350000E4E00C942B1DABE0B0E0E9E8FAE10C94A8
:10351000011D7C013B018A01FC0117821682838117
:1035200081FFC8C1CE0101965C01F7019381F301CF
:1035300093FD859193FF81913F01882309F453C145
:10354000853239F493FD859193FF81913F01853256
:1035500029F4B70190E00E94731CE7CF912C212C35
:10356000312CFFE1F31538F08B3211F190F48032F9
:1035700009F1833229F137FC3CC020ED280F2A30B5
:1035800050F536FE20C08AE0989E200D1124922E20
:1035900006C08D3291F0803371F7689430F8F301F2
:1035A00093FD859193FF81913F018111DACF21C075
:1035B000689431F8689432F8F2CF689433F8EFCF1A
:1035C000689434F8ECCFEAE02E9E200D1124222ED0
:1035D000689435F8E4CF8E3229F436FC04C168943F
:1035E00036F8DDCF8C3619F4689437F8D8CF8836A2
:1035F000B1F2982F9F7D95549330E0F08336A1F17E
:103600008337C1F1833509F063C02801F2E04F0E22
:10361000511CF801C080D180692D70E036FC02C0D9
:103620006FEF7FEFC6010E945D1C4C01689437F874
:1036300082010AC00C5F1F4FFFE3F9838824839443
:10364000912C6501E89437F833FE2DC0522C81147B
:10365000910471F5552009F468CFB70180E290E03C
:103660000E94731C5A94F6CFF801808189830E5F03
:103670001F4FE4CF2801F2E04F0E511CF801C0802B
:10368000D180692D70E036FC02C06FEF7FEFC6017C
:103690000E94681C4C018201D5CFB70180E290E006
:1036A0000E94731C2A942814190409F0B0F7CECF95
:1036B000F60137FC859137FE81916F01B70190E0EB
:1036C0000E94731C51105A94F1E08F1A9108BFCFD9
:1036D000843619F0893609F077C0F80137FE6BC0DF
:1036E00060817181828193810C5F1F4FF32DFF7682
:1036F0003F2E97FF09C090958095709561957F4FFB
:103700008F4F9F4F689437F82AE030E0A5010E9460
:10371000A31CC82ECA188C2C432C36FE0CC0E8946F
:1037200040F8C91440F434FE05C032FC03C0F32D48
:10373000FE7E4F2E892C44FE95C0FE01EC0DF11D3E
:103740008081803309F087C0242D297E422E842D6C
:103750008870582E43FC95C040FE8FC09C2C82146C
:1037600018F42C0C922C981844FE91C0B70180E3F9
:1037700090E00E94731C42FE09C088E790E041FE81
:1037800002C088E590E0B7010E94731CC91408F4D8
:103790008AC0CA94D12C9FEFC91AD90ACA0CDB1C63
:1037A000F60182916F01B70190E00E94731CAC1486
:1037B000BD04B1F74FCF60817181072E000C880BDB
:1037C000990B0E5F1F4F92CFD32CE894D4F82AE0C8
:1037D00030E0853739F1232D297FD22E8F3601F144
:1037E00048F48835A9F0F701868197812B96E2E1AC
:1037F0000C941D1D803749F08837A9F7D4FE02C00C
:103800006894D2F820E130E00DC06894D4F8F6CF87
:1038100034FE03C0822F8660D82E20E132E002C041
:1038200028E030E0F801D7FE0FC06081718182810D
:1038300093810C5F1F4FA5010E94A31CC82ECA18BC
:103840003D2CE89437F867CF6081718190E080E08B
:103850000E5F1F4FF0CF42FC02C0839478CF839459
:10386000839475CF842D867809F471CFF6CFB70194
:1038700080E290E00E94731C83948214C0F3512C68
:1038800073CF522C5818821408F46ECFF8CF842DC1
:10389000867809F47BCF8BE241FE80E247FC8DE223
:1038A000B70190E071CFB70180E390E00E94731CF4
:1038B0009A946CCF8FEF9FEF99CFFC0105906150E8
:1038C00070400110D8F7809590958E0F9F1F089536
:1038D000FC016150704001900110D8F780959095DF
:1038E0008E0F9F1F08950F931F93CF93DF93182F71
:1038F000092FEB018B8181FD09C01FEF0FEF812F95
:10390000902FDF91CF911F910F91089582FF14C0E6
:103910002E813F818C819D81281739073CF4E881F5
:10392000F981CF0101969983888310838E819F81CD
:1039300001969F838E83E3CFE885F985812F0995D2
:10394000892BA1F3DACFFA01AA27283051F12031CF
:1039500081F1E8946F936E7F6E5F7F4F8F4F9F4F23
:10396000AF4FB1E03ED0B4E03CD0670F781F891F65
:103970009A1FA11D680F791F8A1F911DA11D6A0F33
:10398000711D811D911DA11D20D009F468943F91E6
:103990002AE0269F11243019305D3193DEF6CF01E5
:1039A0000895462F4770405D4193B3E00FD0C9F7AB
:1039B000F6CF462F4F70405D4A3318F0495D31FD18
:1039C0004052419302D0A9F7EACFB4E0A69597956B
:1039D000879577956795BA95C9F700976105710541
:1039E00008959B01AC010A2E06945795479537958B
:1039F0002795BA95C9F7620F731F841F951FA01DE5
:103A000008952F923F924F925F926F927F928F9282
:103A10009F92AF92BF92CF92DF92EF92FF920F935D
:103A20001F93CF93DF93CDB7DEB7CA1BDB0B0FB667
:103A3000F894DEBF0FBECDBF09942A883988488824
:103A40005F846E847D848C849B84AA84B984C884BA
:103A5000DF80EE80FD800C811B81AA81B981CE0FB1
:103A6000D11D0FB6F894DEBF0FBECDBFED01089596
:043A7000F894FFCFF8
:103A74000101013C00000048420000803E01FF00BB
:103A84000000008709C908DF0BDE0B970B0D0A0045
:103A94006E616E00696E66006F766600204D696E19
:103AA40069204B5300204D6F6E737465720057612B
:103AB400737365726D656E676500204C6974657219
:103AC400004B532053746165726B65002070706DF8
:103AD40020002070706D202000556D706F6C7A6529
:103AE4006974002053656B2E002053656B2E2000F3
:103AF4002070706D006D672F4C20636F6C64006DD7
:103B0400672F4C20686F740053746172743F0025F2
:103B14003031643A253032643A25303264002D3A2B
:103B24002D2D3A2D2D002070706D20202020002096
:103B34006D41682020202020202000206D4120207D
:103B4400200020566F6C7420202020202000206D3F
:103B5400412052002B004B53206665727469670044
:00000001FF
